:100000000C945E000C9486000C9486000C94860080
:100010000C9486000C9486000C9486000C94860048
:100020000C9486000C9486000C9486000C94860038
:100030000C9486000C9486000C9486000C94860028
:100040000C94ED020C9486000C9415050C94580544
:100050000C9486000C9486000C9486000C94860008
:100060000C9486000C94860000000007000201003A
:100070000003040600000000000000000102040864
:100080001020408001020408102001020408102002
:10009000040404040404040402020202020203032E
:1000A0000303030300000000250028002B000000CC
:1000B0000000240027002A0074011D0611241FBE21
:1000C000CFEFD4E0DEBFCDBF11E0A0E0B1E0EEE8BD
:1000D000FFE002C005900D92A831B107D9F711E0F9
:1000E000A8E1B1E001C01D92A83EB107E1F710E020
:1000F000CEE5D0E004C02197FE010E94BF07CC35B9
:10010000D107C9F70E9467010C94C5070C94000041
:1001100086E00E94310280932A0186E00E9431022B
:1001200080932B0187E00E944F026A3071058105A0
:10013000910548F060932501709326018093270173
:10014000909328010CC08AE090E0A0E0B0E080939A
:10015000250190932601A0932701B0932801609177
:1001600025017091260180912701909128010E941C
:10017000AC0620E030E040E05FE30E943A070E94D6
:100180008006609321017093220180932301909354
:10019000240184E00E9431028093290161E00E94E1
:1001A000F20360E0809129010E942E041092180150
:1001B00008950E94CD0261E087E00E94C5010C9481
:1001C00088008CE291E00E94AE02809320018D3085
:1001D000A1F480911801882341F060E08091290109
:1001E0000E942E041092180108C061E0809129013C
:1001F0000E942E0481E08093180180912C018823B5
:1002000009F464C080912A0180931F010E945E045A
:1002100090931E0180931D01609121017091220134
:1002200080912301909124010E94680380911F0115
:100230000E945E0490931E0180931D018CE291E068
:100240000E949A029B01AC016093190170931A01FC
:1002500080931B0190931C0160911D0170911E0100
:1002600080911F010E94080280912B0180931F0141
:100270000E945E0490931E0180931D0160912101F4
:100280007091220180912301909124010E946803C2
:1002900080911F010E945E0490931E0180931D01B6
:1002A0008CE291E00E949A029B01AC0160931901DB
:1002B00070931A0180931B0190931C0160911D01A2
:1002C00070911E0180911F010C94080208950E94F4
:1002D0008E030E94D900CFE4D5E00E94E100209770
:1002E000E1F30E944F05F9CF8CE291E00C94760285
:1002F0008EE391E00E94A7040895CF92DF92EF92DF
:10030000FF92CF93DF938EE391E00E94A7047C01DC
:100310008EE391E00E94A704C12CD12CD82ECE28C8
:10032000DF28EE24D7FCE094FE2C8EE391E00E94BF
:10033000A704EC018EE391E00E94A704AA2797FD91
:10034000A095BA2FB82FAA2799278827AE0166272C
:1003500057FD6095762FBA0155274427842B952B9E
:10036000A62BB72BBC01CD016C297D298E299F2995
:10037000DF91CF91FF90EF90DF90CF900895682F9D
:100380008EE391E00E94D2040895CF93DF93D82F9B
:10039000C62F40E052EC61E070E08EE391E00E94F5
:1003A00093058D2F0E94BF018C2FDF91CF910C946C
:1003B000BF01CF93DF9300D0CDB7DEB799838A8397
:1003C00042E050E0BE016F5F7F4F8EE391E00E94FC
:1003D00058060F900F90DF91CF910895CF93DF9340
:1003E00000D000D0CDB7DEB799838A837B836C833E
:1003F00044E050E0BE016F5F7F4F8EE391E00E94CA
:1004000058060F900F900F900F90DF91CF910895A5
:10041000EF92FF921F93CF93DF9300D000D0CDB720
:10042000DEB7182F7B0182EA29833A834B835C83F2
:100430000E94BF01812F0E94BF0129813A814B8117
:100440005C81CA01B9010E94EE01C7010F900F90B3
:100450000F900F90DF91CF911F91FF90EF900C9430
:10046000D9011F93CF93DF93182F8EE391E00E9461
:100470007B040297D4F30E947801D82F0E94780160
:10048000C82F812F0E94BF018D2F0E94BF018C2F8A
:100490000E94BF018C2FDF91CF911F910895CF92C1
:1004A000DF92EF92FF92CF93DF93D82F8EE391E00C
:1004B0000E947B040597D4F30E947801C82F0E9404
:1004C0007D016B017C018D2F0E94BF018C2F0E944A
:1004D000BF01C701B6010E94EE01C701B601DF915D
:1004E000CF91FF90EF90DF90CF900895FC011082A4
:1004F000118212821382148215821682178210864C
:100500000895CF93DF93EC010E94430369837A83BC
:100510008B839C830E9437036D837E838F839887B0
:1005200081E08883DF91CF910895FC01108280EBF8
:100530000C94BF010F931F93CF93DF93EC010E94A4
:1005400037030D811E812F813885601B710B820B53
:10055000930BDF91CF911F910F910895CF93DF936C
:10056000EC018EE391E00E947B04892B91F08EE3F5
:1005700091E00E94A704813029F4CE010E948102FB
:1005800081E008C0823031F4CE010E94950282E001
:1005900001C080E0DF91CF91089561E08DE00E947D
:1005A000F20360E08DE00E942E0461E08CE00E9486
:1005B000F20360E08CE00E942E0460E082E00E9482
:1005C000F20360E083E00E94F20361E082E00E94B7
:1005D0002E0461E083E00C942E041F920F920FB65C
:1005E0000F9211242F933F938F939F93AF93BF93B9
:1005F0008091360190913701A0913801B091390175
:100600003091350123E0230F2D3720F40196A11DF1
:10061000B11D05C026E8230F0296A11DB11D209330
:1006200035018093360190933701A0933801B09340
:10063000390180913A0190913B01A0913C01B09128
:100640003D010196A11DB11D80933A0190933B019C
:10065000A0933C01B0933D01BF91AF919F918F91C9
:100660003F912F910F900FBE0F901F9018952FB7AD
:10067000F894609136017091370180913801909122
:1006800039012FBF08953FB7F89480913A019091B6
:100690003B01A0913C01B0913D0126B5A89B05C04E
:1006A0002F3F19F00196A11DB11D3FBFBA2FA92FF1
:1006B000982F8827820F911DA11DB11DBC01CD016E
:1006C00042E0660F771F881F991F4A95D1F708955A
:1006D000CF92DF92EF92FF92CF93DF936B017C0179
:1006E0000E944303EB01C114D104E104F10479F049
:1006F0000E9443036C1B7D0B683E7340A0F381E0B6
:10070000C81AD108E108F108C851DC4FECCFDF91DD
:10071000CF91FF90EF90DF90CF900895789484B5BB
:10072000826084BD84B5816084BD85B5826085BDED
:1007300085B5816085BDEEE6F0E0808181608083D3
:10074000E1E8F0E0108280818260808380818160B6
:100750008083E0E8F0E0808181608083E1EBF0E07D
:10076000808184608083E0EBF0E080818160808321
:10077000EAE7F0E08081846080838081826080830A
:100780008081816080838081806880831092C10035
:100790000895833081F028F4813099F08230A1F0FF
:1007A00008958630A9F08730B9F08430D1F4809173
:1007B00080008F7D03C0809180008F7780938000C0
:1007C000089584B58F7702C084B58F7D84BD089568
:1007D0008091B0008F7703C08091B0008F7D8093AF
:1007E000B0000895CF93DF9390E0FC01E458FF4FF1
:1007F0002491FC01E057FF4F8491882361F190E040
:10080000880F991FFC01E255FF4FC591D491FC015F
:10081000EC55FF4FA591B491611109C09FB7F894B1
:100820008881209582238883EC912E230BC062302F
:1008300061F49FB7F8943881822F80958323888351
:10084000EC912E2B2C939FBF06C08FB7F894E881B4
:100850002E2B28838FBFDF91CF9108951F93CF93C5
:10086000DF93282F30E0F901E859FF4F8491F90117
:10087000E458FF4FD491F901E057FF4FC491CC23C6
:10088000C9F0162F81110E94C903EC2FF0E0EE0F82
:10089000FF1FEC55FF4FA591B4918FB7F89411113C
:1008A00005C09C91ED2FE095E92302C0EC91ED2B62
:1008B000EC938FBFDF91CF911F9108958E3008F098
:1008C0008E5087702091060190E4299F9001112499
:1008D000822B80937C0080917A00806480937A00E0
:1008E00080917A0086FDFCCF80917800209179007C
:1008F00090E0922B0895FC0124853585F901E05C98
:10090000FF4F80819181329620813181821B930B30
:100910008F7399270895DC011C96ED91FC911D972A
:10092000DF01A05CBF4F2D913C91119712968D91E4
:100930009C9111972817390739F08D919C91E80FF8
:10094000F91F808190E008958FEF9FEF0895FC01DB
:10095000A485B585FD01E05CFF4F20813181329691
:10096000808191812817390779F080819181A80FC2
:10097000B91F8C91208131812F5F3F4F2F73332717
:100980003183208390E008958FEF9FEF0895FC015D
:1009900081A1882329F0A489B5898C9186FFFBCF9A
:1009A00011A208950F931F93CF93DF93FC01A685A7
:1009B000B7858D01005C1F4FE80188819981019600
:1009C0008F739927AD014E5B5F4FEA012881398112
:1009D00082179307D1F3E80128813981A20FB31F51
:1009E0006C93A685B785A05CBF4F11969C938E93A0
:1009F000A689B7892C9181E090E0078C02C0880F0E
:100A0000991F0A94E2F7822B8C9381E081A30488DA
:100A1000F589E02D80818064808381E090E0DF9122
:100A2000CF911F910F91089508951F920F920FB6C5
:100A30000F9211242F934F935F938F939F93EF9374
:100A4000FF938091C00082FD1CC02091C600809160
:100A5000E4019091E50101968F7399274091E60199
:100A60005091E7018417950771F0E091E401F0914E
:100A7000E501EC55FE4F20839093E5018093E4015E
:100A800002C08091C600FF91EF919F918F915F917D
:100A90004F912F910F900FBE0F901F9018958EE3DE
:100AA00091E00E947B04892B11F00C9414050895A9
:100AB0001F920F920FB60F9211242F933F938F9393
:100AC0009F93EF93FF932091A0013091A10180911A
:100AD000A2019091A3012817390731F48091C10038
:100AE0008F7D8093C10014C0E091A201F091A30119
:100AF000E05AFE4F20818091A2019091A3010196BE
:100B00008F7399279093A3018093A2012093C6002D
:100B1000FF91EF919F918F913F912F910F900FBE79
:100B20000F901F901895CF92DF92EF92FF920F9344
:100B30001F93CF93DF93EC016A017B01411581EE96
:100B400058076105710511F1EC89FD8981E090E09C
:100B500008A002C0880F991F0A94E2F7808360E022
:100B600079E08DE390E0A70196010E949D0789013D
:100B70009A010150110921093109369527951795D8
:100B800007959801011580E11807A8F0EC89FD8907
:100B9000108260E874E88EE190E0A70196010E945F
:100BA0009D07DA01C9010197A109B109B695A79579
:100BB000979587959C01E889F9893083EA89FB89B3
:100BC000208319A2EE89FF89408181E090E09C0199
:100BD0000C8C02C0220F331F0A94E2F7242B2083CF
:100BE000EE89FF8940819C010D8C02C0220F331FCA
:100BF0000A94E2F7242B2083EE89FF8940819C012F
:100C00000E8C02C0220F331F0A94E2F7242B20839C
:100C1000EE89FF8920810F8C02C0880F991F0A94EA
:100C2000E2F7809582238083DF91CF911F910F910E
:100C3000FF90EF90DF90CF900895EEE3F1E0138204
:100C4000128288EE93E0A0E0B0E084839583A683CF
:100C5000B7838BE091E09183808384EA91E095876C
:100C6000848780E691E09787868785EC90E0918B7A
:100C7000808B84EC90E0938B828B80EC90E0958B62
:100C8000848B81EC90E0978B868B82EC90E0918F47
:100C9000808F86EC90E0938F828F84E0848F83E056
:100CA000858F87E0868F85E0878F81E080A3089518
:100CB000CF92DF92EF92FF920F931F93CF93DF9328
:100CC0006C01EB017B01E40EF51E00E010E0CE1597
:100CD000DF0561F06991D601ED91FC910190F08101
:100CE000E02DC6010995080F191FF1CFC801DF914A
:100CF000CF911F910F91FF90EF90DF90CF900895CB
:100D000098D088F09F5790F0B92F9927B751A0F04D
:100D1000D1F0660F771F881F991F1AF0BA95C9F78F
:100D200012C0B13081F09FD0B1E008959CC0672F10
:100D3000782F8827B85F39F0B93FCCF3869577953F
:100D40006795B395D9F73EF4909580957095619528
:100D50007F4F8F4F9F4F0895E89409C097FB3EF453
:100D600090958095709561957F4F8F4F9F4F9923F8
:100D7000A9F0F92F96E9BB279395F6958795779576
:100D80006795B795F111F8CFFAF4BB0F11F460FF36
:100D90001BC06F5F7F4F8F4F9F4F16C0882311F08E
:100DA00096E911C0772321F09EE8872F762F05C0A2
:100DB000662371F096E8862F70E060E02AF09A953D
:100DC000660F771F881FDAF7880F9695879597F932
:100DD000089597F99F6780E870E060E008959FEFBD
:100DE00080EC089500240A941616170618060906C2
:100DF000089500240A941216130614060506089591
:100E0000092E0394000C11F4882352F0BB0F40F418
:100E1000BF2B11F460FF04C06F5F7F4F8F4F9F4F58
:100E2000089557FD9058440F551F59F05F3F71F0DA
:100E30004795880F97FB991F61F09F3F79F0879541
:100E40000895121613061406551FF2CF4695F1DFCA
:100E500008C0161617061806991FF1CF869571055A
:100E6000610508940895E894BB2766277727CB018E
:100E700097F908950BD0C4CFB5DF28F0BADF18F08A
:100E8000952309F0A6CFABCF1124EECFCADFA0F394
:100E9000959FD1F3950F50E0551F629FF001729F0F
:100EA000BB27F00DB11D639FAA27F00DB11DAA1F2E
:100EB000649F6627B00DA11D661F829F2227B00D7B
:100EC000A11D621F739FB00DA11D621F839FA00D06
:100ED000611D221F749F3327A00D611D231F849F56
:100EE000600D211D822F762F6A2F11249F575040AD
:100EF0008AF0E1F088234AF0EE0FFF1FBB1F661F48
:100F0000771F881F91505040A9F79E3F510570F000
:100F100060CFAACF5F3FECF3983EDCF386957795E0
:100F20006795B795F795E7959F5FC1F7FE2B880FFB
:100F3000911D9695879597F90895A1E21A2EAA1BFF
:100F4000BB1BFD010DC0AA1FBB1FEE1FFF1FA21779
:100F5000B307E407F50720F0A21BB30BE40BF50B76
:100F6000661F771F881F991F1A9469F760957095FF
:100F7000809590959B01AC01BD01CF010895EE0FC6
:0E0F8000FF1F0590F491E02D0994F894FFCF27
:100F8E000000E80120000100000000D20458067B9A
:080F9E0004A7048B04C7040042
:00000001FF
