:100000000C9453010C941F080C9450080C94810814
:100010000C94B2080C94E3080C9414090C94450950
:100020000C9476090C9484010C9484010C94840142
:100030000C9484010C9484010C9484010C9484012C
:100040000C9484010C9484010C9484010C9484011C
:100050000C9484010C9484010C9484010C94E305A9
:100060000C9484010C94580A0C94480B0C94840151
:100070000C9484010C9484010C9484010C948401EC
:100080000C9484010C9484010C9484010C948401DC
:100090000C948C0A0C94870B0C9484010C948401AE
:1000A0000C9484010C9484010C9484010C948401BC
:1000B0000C9484010C9484010C9484010C948401AC
:1000C0000C9484010C9484010C9484010C94C00A57
:1000D0000C94C60B0C9484010C94F40A0C94050C3B
:1000E0000C94840104070707FA06FE063E070B0777
:1000F0000F07150719071D07230727072B073E07BB
:10010000310735073907F907C307CB07D707E407D6
:10011000050812080000090A02080B0C0D07060367
:1001200004010000000000000000000000000000CA
:1001300000000000000000000000000000000000BF
:1001400011100F000000000000000000000000007F
:100150000000000000000000000001021020200844
:100160000810204010204080020102010804020112
:100170000102040810204080804020100804020181
:1001800080040201804020100804020108040201DA
:100190000102040810204080010204081020408061
:1001A00005050505070508080808020202020A0AF3
:1001B0000808040404040101010101010101030311
:1001C000030303030303040707070C0C0C0C0C0CBC
:1001D0000C0C0202020206060606060606060B0BB9
:1001E0000B0B0B0B0B0B00002200250028002B0033
:1001F0002E003100340002010000050108010B014E
:1002000000002100240027002A002D0030003300C8
:1002100001010000040107010A010C94D4090C94A7
:10022000F9070C9431070C9435070C947A0D0C9453
:1002300019070C94B8050C94C3070C94E6030C94AE
:1002400012080C943E070C9407070C9423070C9497
:1002500027070C9439070C94440C0C94B9090C949E
:1002600005080C94D7070C940B070C941D070C94ED
:10027000FE060C94E4070C94CB070C94FA060C943D
:1002800015070C942F020C94270B0C94010A0C9464
:10029000A7090C942B070C94F6090C9404070C94F2
:1002A0000F07E603440C11241FBECFEFD1E2DEBFDF
:1002B000CDBF00E00CBF12E0A0E0B2E0E2E8FDE15B
:1002C00000E00BBF02C007900D92AE35B107D9F721
:1002D00015E0AEE5B2E001C01D92AD34B107E1F723
:1002E00012E0C6EAD2E000E006C022970109FE0152
:1002F0000BBF0E94BB0EC23AD10780E00807A9F7E6
:100300000E94D9030C94BF0E0C94000080910A0245
:100310000E94BE05BC01882777FD8095982F2AE0B2
:1003200030E040E050E00E94840E2F5F3F4F4F4F7F
:100330005F4FA8EEB3E00E94790E089587E792E040
:100340000E94A20440E060E087E792E00E94A904D6
:1003500060917402709175024AE050E087E792E084
:100360000E94640E41E060E087E792E00E94A904E9
:1003700060917002709171024AE050E087E792E06C
:100380000E94640E42E060E087E792E00E94A904C8
:1003900060916C0270916D024AE050E087E792E054
:1003A0000E94640E43E060E087E792E00E94A904A7
:1003B00060916802709169024AE050E087E792E03C
:1003C0000E94640E40E06AE087E792E00E94A90480
:1003D00065E172E087E792E00E94B80D40E06DE0D1
:1003E00087E792E00E94A90440910602509107021B
:1003F00060910802709109022AE030E087E792E0FC
:100400000E946C0E42E06AE087E792E00E94A90435
:1004100068E172E087E792E00E94B80D42E06DE08B
:1004200087E792E00E94A9046091630270916402E0
:100430004AE050E087E792E00C94640E1092750257
:1004400010927402109271021092700210926D025A
:1004500010926C02109269021092680208958091C5
:10046000650281111CC00E941E0261E08DE00E94A5
:1004700078078091630290916402019690936402E0
:10048000809363020E942D0660935F027093600266
:10049000809361029093620281E0809365020895E7
:1004A00089B18093760251E083FF50E0509373024C
:1004B00041E084FF40E040936F0231E085FF30E08F
:1004C00030936B0221E086FF20E0209367025523E2
:1004D00069F080917202811109C08091740290913B
:1004E0007502019690937502809374025093720284
:1004F000442369F080916E02811109C080917002DD
:1005000090917102019690937102809370024093D2
:100510006E02332369F080916A02811109C08091D3
:100520006C0290916D02019690936D0280936C0223
:1005300030936A02222369F080916602811109C01A
:10054000809168029091690201969093690280936C
:1005500068022093660208950F931F9380916502AD
:10056000882349F10E942D0600915F0210916002DC
:100570002091610230916202601B710B820B930B20
:1005800000910602109107022091080230910902A1
:10059000601771078207930720F41F910F910C9445
:1005A00050021092650260E08DE00E9478071F9172
:1005B0000F910C949E010E94860160930602709335
:1005C0000702809308029093090240E06AE087E7FF
:1005D00092E00E94A90465E172E087E792E00E9440
:1005E000B80D40E06DE087E792E00E94A9046091B9
:1005F000060270910702809108029091090228EE8C
:1006000033E040E050E00E94840EBA01A9012AE0E4
:1006100030E04A3051056105710538F487E792E012
:100620000E946C0E6BE172E00BC04436510561050F
:10063000710558F487E792E00E946C0E6CE172E05D
:1006400087E792E00E94B80D11C0483E83E058074A
:100650006105710538F487E792E00E946C0E6DE148
:1006600072E0EECF87E792E00E946C0E40E062E11C
:1006700087E792E00E94A9046FE172E087E792E0C9
:100680000E94B80D64E670E080E090E01F910F9149
:100690000C945C06833021F4809180008F7705C034
:1006A000843031F4809180008F7D809380000895A4
:1006B000813019F484B58F7704C0823021F484B579
:1006C0008F7D84BD0895863021F48091B0008F77AE
:1006D00005C0873029F48091B0008F7D8093B000F1
:1006E000089560E082E00E943F0760E083E00E949E
:1006F0003F0760E084E00E943F0760E085E00E94E1
:100700003F0760E086E00E943F07E7E1F1E0849167
:1007100080935E0281110E944A03E8E1F1E0849136
:1007200080935E0281110E944A03E9E1F1E0849125
:1007300080935E0281110E944A03EAE1F1E0849114
:1007400080935E0281110E944A0361E08DE00E9465
:100750003F0720E044E064E187E792E00E94DE0486
:1007600061E272E087E792E00E94B80D41E060E04C
:1007700087E792E00E94A90466E372E087E792E0CF
:100780000E94B80D68EE73E080E090E00E945C0685
:1007900087E792E00E94A2046AE070E080E090E0C7
:1007A0000E945C0643E050E06FE272E080E00C944F
:1007B000AE070E948D060E947103C7E2DBE00E9433
:1007C000AC022097E1F30E94270BF9CFCF92EF9272
:1007D0000F9387E0C82E98E0E92E09E02AE04BE06D
:1007E0006CE087E792E00E9492050F91EF90CF9026
:1007F0000895CF93DF93EC0160E08E810E9478072B
:1008000081E090E00E94820661E08E810E9478077C
:1008100081E090E00E94820660E08E810E9478076D
:1008200084E690E0DF91CF910C948206CF92DF9224
:10083000EF92FF920F931F93CF93DF937C01C0E061
:10084000D0E0C62ED12C87010C0F1D1F61E0F801EE
:1008500087810E943F07B6010C2E02C075956795EF
:100860000A94E2F76170F80187810E947807219667
:10087000C430D10541F7C701DF91CF911F910F918E
:10088000FF90EF90DF90CF900C94F903CF92DF921E
:10089000EF92FF920F931F93CF93DF937C01C0E001
:1008A000D0E0C62ED12C87010C0F1D1F61E0F8018E
:1008B00087810E943F07B6010C2E02C0759567958F
:1008C0000A94E2F76170F80187810E947807219607
:1008D000C830D10541F7C701DF91CF911F910F912A
:1008E000FF90EF90DF90CF900C94F9031F93CF937C
:1008F000DF93EC01162F642F8C810E9478078D8185
:100900008F3F19F060E00E9478078F85612F84FF88
:1009100006C0CE01DF91CF911F910C94460470E088
:1009200084E0759567958A95E1F7CE010E941604DB
:10093000612FCE01DF91CF911F910C94160440E0FE
:100940000C94760461E00E949F0480ED97E00C9483
:100950008206CF93DF93CDB7DEB728970FB6F89412
:10096000DEBF0FBECDBF28E0EDE0F2E0DE01119664
:1009700001900D922A95E1F7FC012389421710F0AE
:100980004FEF420FFE013196E40FF11DE40FF11D10
:100990002081260F2068622F28960FB6F894DEBFBC
:1009A0000FBECDBFDF91CF910C949F04FC016089F5
:1009B000262F2460208B6C600C949F04CF93DF93D0
:1009C000EC01423018F08F8588608F874B8B1C8A32
:1009D000222329F0413019F48F8584608F8780E5C8
:1009E00093EC0E94820660E08C810E94780760E0B0
:1009F0008E810E9478078D818F3F19F060E00E9400
:100A000078076F8564FD1DC063E0CE010E94160467
:100A100084E991E10E94820663E0CE010E941604FF
:100A200084E991E10E94820663E0CE010E941604EF
:100A300086E990E00E94820662E0CE010E941604E0
:100A400016C06062CE010E949F0484E991E10E9479
:100A500082066F856062CE010E949F0486E990E065
:100A60000E9482066F856062CE010E949F046F859E
:100A70006062CE010E949F0484E0888BCE010E94B8
:100A8000D604CE010E94A20482E0898B66E0CE01EA
:100A9000DF91CF910C949F046F927F928F92AF92CF
:100AA000CF92EF920F931F93CF93DF93CDB7DEB723
:100AB0003C01162F842F5E854F8538899989F30173
:100AC000848325830683E782C086A1868286538736
:100AD00044873587968761E00E943F07F30185814F
:100AE0008F3F19F061E00E943F0761E0F3018681CA
:100AF0000E943F07112319F0F301178603C080E11C
:100B0000F301878720E041E060E1C301DF91CF91ED
:100B10001F910F91EF90CF90AF908F907F906F903B
:100B20000C94DE048F92AF92CF92EF920F93DC0180
:100B300013961C921E921297EAE4F2E0ED93FC9356
:100B40001F921F921F921F928C2CAE2CC02EE22E51
:100B5000042F2FEF462F61E00E944C050F900F905D
:100B60000F900F900F91EF90CF90AF908F900895CE
:100B700041E00E94760481E090E00895863308F019
:100B8000865320917B00982F9870277F922B90930B
:100B90007B00877020910C0290E4299F9001112422
:100BA000822B80937C0080917A00806480937A000D
:100BB00080917A0086FDFCCF8091780020917900A9
:100BC00090E0922B08951F920F920FB60F9211246E
:100BD0002F933F938F939F93AF93BF9380918D02F9
:100BE00090918E02A0918F02B091900230918C0270
:100BF00023E0230F2D3720F40196A11DB11D05C060
:100C000026E8230F0296A11DB11D20938C0280932C
:100C10008D0290938E02A0938F02B09390028091E8
:100C2000910290919202A0919302B0919402019648
:100C3000A11DB11D8093910290939202A093930203
:100C4000B0939402BF91AF919F918F913F912F915B
:100C50000F900FBE0F901F9018952FB7F8946091CA
:100C60008D0270918E0280918F02909190022FBF21
:100C700008953FB7F8948091910290919202A091CB
:100C80009302B091940226B5A89B05C02F3F19F09E
:100C90000196A11DB11D3FBF6627782F892F9A2F7E
:100CA000620F711D811D911D42E0660F771F881F25
:100CB000991F4A95D1F70895CF92DF92EF92FF9254
:100CC000CF93DF936B017C010E943906EB01C114C5
:100CD000D104E104F10479F00E9439066C1B7D0B0C
:100CE000683E7340A0F381E0C81AD108E108F1081A
:100CF000C851DC4FECCFDF91CF91FF90EF90DF90A8
:100D0000CF9008950197009739F0880F991F880FA9
:100D1000991F02970197F1F70895789484B582603E
:100D200084BD84B5816084BD85B5826085BD85B58F
:100D3000816085BDEEE6F0E0808181608083E1E83E
:100D4000F0E0108280818260808380818160808376
:100D5000E0E8F0E0808181608083E1EBF0E0808179
:100D600084608083E0EBF0E0808181608083E1E952
:100D7000F0E0808182608083808181608083E0E90F
:100D8000F0E0808181608083E1EAF0E08081826030
:100D90008083808181608083E0EAF0E080818160EF
:100DA0008083E1E2F1E080818260808380818160E4
:100DB0008083E0E2F1E0808181608083EAE7F0E017
:100DC0008081846080838081826080838081816073
:100DD00080838081806880831092C100089590E0B4
:100DE000FC013197E131F10508F048C0EE58FF4FA2
:100DF0000C94A60E809180008F7703C080918000B4
:100E00008F7D80938000089584B58F7702C084B56C
:100E10008F7D84BD08958091B0008F7703C080914D
:100E2000B0008F7D8093B0000895809190008F77FF
:100E300007C0809190008F7D03C080919000877FD4
:100E40008093900008958091A0008F7707C08091D3
:100E5000A0008F7D03C08091A000877F8093A000B9
:100E60000895809120018F7707C0809120018F7DA8
:100E700003C080912001877F809320010895CF9344
:100E8000DF9390E0FC01E65AFE4F2491FC01E0560E
:100E9000FE4F8491882349F190E0880F991FFC014F
:100EA000E050FE4FA591B4918A519E4FFC01C5912F
:100EB000D4919FB7611108C0F8948C91209582233A
:100EC0008C93888182230AC0623051F4F8948C910B
:100ED000322F309583238C938881822B888304C0A2
:100EE000F8948C91822B8C939FBFDF91CF910895C2
:100EF0000F931F93CF93DF931F92CDB7DEB7282FA9
:100F000030E0F901EC5EFE4F8491F901E65AFE4FA4
:100F10001491F901E056FE4F04910023C9F0882393
:100F200021F069830E94EF066981E02FF0E0EE0F67
:100F3000FF1FEA51FE4FA591B4919FB7F8948C9191
:100F4000611103C01095812301C0812B8C939FBF39
:100F50000F90DF91CF911F910F910895883008F085
:100F60006DC0E82FF0E0EE0FFF1FEB56FD4F7183D1
:100F7000608390E0FC013197E730F10590F5ED5783
:100F8000FF4F0C94A60E809169008C7F842B809378
:100F90006900E89A089580916900440F551F440F35
:100FA000551F837F842B80936900E99A089580916F
:100FB000690074E0440F551F7A95E1F78F7C842B0C
:100FC00080936900EA9A08958091690066E0440F71
:100FD000551F6A95E1F78F73842B80936900EB9A14
:100FE000089580916A008C7F842B80936A00EC9A2C
:100FF000089580916A00440F551F440F551F837F49
:10100000842B80936A00ED9A089580916A0024E011
:10101000440F551F2A95E1F78F7C842B80936A003B
:10102000EE9A089580916A0096E0440F551F9A95B4
:10103000E1F78F73842B80936A00EF9A08951F92D3
:101040000F920FB60F9211240BB60F922F933F936E
:101050004F935F936F937F938F939F93AF93BF93C0
:10106000EF93FF938091990290919A02892B29F036
:10107000E0919902F0919A021995FF91EF91BF9139
:10108000AF919F918F917F916F915F914F913F9120
:101090002F910F900BBE0F900FBE0F901F901895C1
:1010A0001F920F920FB60F9211240BB60F922F932F
:1010B0003F934F935F936F937F938F939F93AF93E0
:1010C000BF93EF93FF9380919B0290919C02892B99
:1010D00029F0E0919B02F0919C021995FF91EF910C
:1010E000BF91AF919F918F917F916F915F914F9140
:1010F0003F912F910F900BBE0F900FBE0F901F903E
:1011000018951F920F920FB60F9211240BB60F92E3
:101110002F933F934F935F936F937F938F939F93FF
:10112000AF93BF93EF93FF9380919D0290919E02A6
:10113000892B29F0E0919D02F0919E021995FF9173
:10114000EF91BF91AF919F918F917F916F915F913F
:101150004F913F912F910F900BBE0F900FBE0F90AC
:101160001F9018951F920F920FB60F9211240BB675
:101170000F922F933F934F935F936F937F938F9330
:101180009F93AF93BF93EF93FF9380919F029091B2
:10119000A002892B29F0E0919F02F091A0021995FD
:1011A000FF91EF91BF91AF919F918F917F916F913F
:1011B0005F914F913F912F910F900BBE0F900FBEFB
:1011C0000F901F9018951F920F920FB60F92112437
:1011D0000BB60F922F933F934F935F936F937F9331
:1011E0008F939F93AF93BF93EF93FF93809195025B
:1011F00090919602892B29F0E0919502F091960248
:101200001995FF91EF91BF91AF919F918F917F9130
:101210006F915F914F913F912F910F900BBE0F9067
:101220000FBE0F901F9018951F920F920FB60F923E
:1012300011240BB60F922F933F934F935F936F93AD
:101240007F938F939F93AF93BF93EF93FF9380917F
:10125000970290919802892B29F0E0919702F091E2
:1012600098021995FF91EF91BF91AF919F918F9146
:101270007F916F915F914F913F912F910F900BBE96
:101280000F900FBE0F901F9018951F920F920FB6E0
:101290000F9211240BB60F922F933F934F935F93AE
:1012A0006F937F938F939F93AF93BF93EF93FF932E
:1012B0008091A1029091A202892B29F0E091A102D4
:1012C000F091A2021995FF91EF91BF91AF919F917B
:1012D0008F917F916F915F914F913F912F910F90DF
:1012E0000BBE0F900FBE0F901F9018951F920F927C
:1012F0000FB60F9211240BB60F922F933F934F937B
:101300005F936F937F938F939F93AF93BF93EF936D
:10131000FF938091A3029091A402892B29F0E09180
:10132000A302F091A4021995FF91EF91BF91AF91A3
:101330009F918F917F916F915F914F913F912F91ED
:101340000F900BBE0F900FBE0F901F901895FC01D1
:1013500024853585F901E05CFF4F80819181F90199
:10136000EE5BFF4F20813181821B930B8F73992796
:101370000895FC0184859585FC01E05CFF4F408168
:101380005181FC01EE5BFF4F2081318142175307F1
:1013900041F00190F081E02DE80FF91F808190E08D
:1013A00008958FEF9FEF0895FC0184859585FC01DA
:1013B000E05CFF4F40815181FC01EE5BFF4F2081DB
:1013C00031814217530779F0A081B181A80FB91F6D
:1013D0008C91208131812F5F3F4F2F7333273183D1
:1013E000208390E008958FEF9FEF0895FC0181A185
:1013F000882329F0A489B5898C9186FFFBCF11A29F
:101400000895CF93DF93FC0126853785D901A05C31
:10141000BF4F8D919C91119701968F739927E90188
:10142000CE5BDF4F4881598184179507D9F30D9022
:10143000BC91A02DA20FB31F6C93A685B785A05CAD
:10144000BF4F11969C938E93A689B7892C9181E00A
:1014500090E0078C02C0880F991F0A94E2F7282BAE
:101460002C9381E081A30488F589E02D808180643C
:10147000808381E090E0DF91CF910895FB01E05CF3
:10148000FF4F208131812F5F3F4F2F733327DB01C7
:10149000AE5BBF4F4D915C912417350739F0A081A9
:1014A000B181A60FB71F8C933183208308950895CF
:1014B0001F920F920FB60F9211240BB60F922F931B
:1014C0003F934F935F936F937F938F939F93AF93CC
:1014D000BF93EF93FF938091C00082FD07C080917E
:1014E000C60069E075E00E943E0A02C08091C60015
:1014F000FF91EF91BF91AF919F918F917F916F91EC
:101500005F914F913F912F910F900BBE0F900FBEA7
:101510000F901F90189508951F920F920FB60F927B
:1015200011240BB60F922F933F934F935F936F93BA
:101530007F938F939F93AF93BF93EF93FF9380918C
:10154000C80082FD07C08091CE0061E874E00E946F
:101550003E0A02C08091CE00FF91EF91BF91AF9102
:101560009F918F917F916F915F914F913F912F91BB
:101570000F900BBE0F900FBE0F901F9018950895FF
:101580001F920F920FB60F9211240BB60F922F934A
:101590003F934F935F936F937F938F939F93AF93FB
:1015A000BF93EF93FF938091D00082FD07C080919D
:1015B000D60069EF73E00E943E0A02C08091D60017
:1015C000FF91EF91BF91AF919F918F917F916F911B
:1015D0005F914F913F912F910F900BBE0F900FBED7
:1015E0000F901F90189508951F920F920FB60F92AB
:1015F00011240BB60F922F933F934F935F936F93EA
:101600007F938F939F93AF93BF93EF93FF938091BB
:10161000300182FD07C08091360161E773E00E94CE
:101620003E0A02C080913601FF91EF91BF91AF91C8
:101630009F918F917F916F915F914F913F912F91EA
:101640000F900BBE0F900FBE0F901F9018958BE060
:1016500093E00E94A709892B11F00E94570A89EE96
:1016600092E00E94A709892B11F00E948B0A87EC57
:1016700092E00E94A709892B11F00E94BF0A85EA17
:1016800092E00E94A709892B11F00C94F30A0895A7
:101690001F920F920FB60F9211240BB60F922F9339
:1016A0003F938F939F93EF93FF9320910505309184
:1016B000060580910705909108052817390731F430
:1016C0008091C1008F7D8093C10014C0E091070517
:1016D000F0910805EB53FB4F208180910705909115
:1016E000080501968F739927909308058093070545
:1016F0002093C600FF91EF919F918F913F912F9181
:101700000F900BBE0F900FBE0F901F9018951F9259
:101710000F920FB60F9211240BB60F922F933F9397
:101720008F939F93EF93FF9320917D0430917E04DC
:1017300080917F04909180042817390731F48091BB
:10174000C9008F7D8093C90014C0E0917F04F0919F
:101750008004E35CFB4F208180917F0490918004A2
:1017600001968F7399279093800480937F04209330
:10177000CE00FF91EF919F918F913F912F910F900C
:101780000BBE0F900FBE0F901F9018951F920F92D7
:101790000FB60F9211240BB60F922F933F938F9396
:1017A0009F93EF93FF932091F5033091F60380917F
:1017B000F7039091F8032817390731F48091D1008D
:1017C0008F7D8093D10014C0E091F703F091F8036E
:1017D000EB54FC4F20818091F7039091F803019620
:1017E0008F7399279093F8038093F7032093D60083
:1017F000FF91EF919F918F913F912F910F900BBE91
:101800000F900FBE0F901F9018951F920F920FB65A
:101810000F9211240BB60F922F933F938F939F93A8
:10182000EF93FF9320916D0330916E0380916F03CE
:10183000909170032817390731F4809131018F7D21
:101840008093310114C0E0916F03F0917003E35D68
:10185000FC4F208180916F039091700301968F73EC
:1018600099279093700380936F0320933601FF9123
:10187000EF919F918F913F912F910F900BBE0F9001
:101880000FBE0F901F901895CF9310920E031092D9
:101890000D0388EE93E0A0E0B0E080930F039093F7
:1018A0001003A0931103B093120322E532E03093AA
:1018B0000C0320930B0349E055E050931803409329
:1018C000170345EC54E050931A034093190345EC79
:1018D00050E050931C0340931B0344EC50E05093A2
:1018E0001E0340931D0340EC50E0509320034093AF
:1018F0001F0341EC50E0509322034093210342EC3C
:1019000050E0509324034093230346EC50E050935F
:10191000260340932503C4E0C0932703F3E0F0932C
:101920002803E7E0E093290375E070932A0361E060
:1019300060932B031092EC021092EB028093ED0265
:101940009093EE02A093EF02B093F0023093EA027C
:101950002093E90241E854E05093F6024093F502E7
:101960004DE354E05093F8024093F7024DEC50E001
:101970005093FA024093F9024CEC50E05093FC0271
:101980004093FB0248EC50E05093FE024093FD026E
:1019900049EC50E0509300034093FF024AEC50E0C2
:1019A00050930203409301034EEC50E05093040324
:1019B00040930303C0930503F0930603E0930703EA
:1019C00070930803609309031092CA021092C9022F
:1019D0008093CB029093CC02A093CD02B093CE0221
:1019E0003093C8022093C70249EF53E05093D402CA
:1019F0004093D30245EB53E05093D6024093D50277
:101A000045ED50E05093D8024093D70244ED50E0AA
:101A10005093DA024093D90240ED50E05093DC023B
:101A20004093DB0241ED50E05093DE024093DD0233
:101A300042ED50E05093E0024093DF0246ED50E06B
:101A40005093E2024093E102C093E302F093E40278
:101A5000E093E5027093E6026093E7021092A80219
:101A60001092A7028093A9029093AA02A093AB02BE
:101A7000B093AC023093A6022093A50281E793E0D5
:101A80009093B2028093B1028DE293E09093B402FE
:101A90008093B30285E391E09093B6028093B50200
:101AA00084E391E09093B8028093B70280E391E0E1
:101AB0009093BA028093B90281E391E09093BC02C3
:101AC0008093BB0282E391E09093BE028093BD02BB
:101AD00086E391E09093C0028093BF02C093C1025D
:101AE000F093C202E093C3027093C4026093C502F4
:101AF000CF910895CF92DF92EF92FF920F931F93B1
:101B0000CF93DF936C017A01EB01E60EF71E00E044
:101B100010E0CE15DF0561F06991D601ED91FC91E1
:101B20000190F081E02DC6011995080F191FF1CF22
:101B3000C801DF91CF911F910F91FF90EF90DF903F
:101B4000CF9008956115710581F0DB010D900020A3
:101B5000E9F7AD0141505109461B570BDC01ED91EE
:101B6000FC910280F381E02D199480E090E00895CB
:101B70000C94A20DDC01ED91FC910190F081E02D1F
:101B800019948F929F92AF92BF92CF92DF92EF9271
:101B9000FF920F931F93CF93DF93CDB7DEB7A1973B
:101BA0000FB6F894DEBF0FBECDBF7C01C42EE52F6B
:101BB000CB01D22E19A221E02D1510F02AE0D22E51
:101BC0008E010F5D1F4F8D2C912CA12CB12C6C2DF3
:101BD0007E2FA50194010E94840E8C2DD29E801927
:101BE0001124015011098A3010F4805D01C0895C14
:101BF000F8018083211531054105510521F0C22EE0
:101C0000E32FCA01E4CFB801C7010E94A20DA1963B
:101C10000FB6F894DEBF0FBECDBFDF91CF911F91FD
:101C20000F91FF90EF90DF90CF90BF90AF909F907B
:101C30008F900895CF92DF92EF92FF920F931F93B0
:101C4000CF93DF93EC016A017B012115310579F413
:101C5000E881F9810190F081E02D642FDF91CF912F
:101C60001F910F91FF90EF90DF90CF9019942A3041
:101C70003105E9F477FF1AC06DE20E94BA0D8C01BC
:101C800044275527BA014C195D096E097F092AE0DE
:101C9000CE010E94C10D800F911FDF91CF911F9146
:101CA0000F91FF90EF90DF90CF9008952AE0B70159
:101CB000A601CE01DF91CF911F910F91FF90EF9080
:101CC000DF90CF900C94C10D9A01AB01662757FDB0
:101CD0006095762F0C941A0E2115310541F4DC0124
:101CE000ED91FC910190F081E02D642F19940C94FA
:101CF000C10D0E94AC0EA59F900DB49F900DA49FA6
:101D0000800D911D11240895A1E21A2EAA1BBB1B60
:101D1000FD010DC0AA1FBB1FEE1FFF1FA217B307B7
:101D2000E407F50720F0A21BB30BE40BF50B661FCD
:101D3000771F881F991F1A9469F760957095809591
:101D400090959B01AC01BD01CF010895EE0FFF1FDF
:101D50000590F491E02D1994A29FB001B39FC001AA
:101D6000A39F700D811D1124911DB29F700D811DC7
:101D70001124911D08950790F691E02D1994F8947F
:021D8000FFCF93
:101D820000004D05200088130000360001000040CD
:101D92000014005400543D00523D002020200073E6
:101DA2000031323334353637383930313233343525
:101DB200363738393000496E6974204C4344205319
:101DC20063616C65720000000000B8057A0D0000C6
:0E1DD2000000010A7A0DA709D409B909F60923
:00000001FF
