:100000000C945E000C9486000C9486000C94860080
:100010000C9486000C9486000C9486000C94860048
:100020000C9486000C9486000C9486000C94860038
:100030000C9486000C9486000C9486000C94860028
:100040000C9402030C9486000C940C050C944F0540
:100050000C9486000C9486000C9486000C94860008
:100060000C9486000C94860000000007000201003A
:100070000003040600000000000000000102040864
:100080001020408001020408102001020408102002
:10009000040404040404040402020202020203032E
:1000A0000303030300000000250028002B000000CC
:1000B0000000240027002A00B3000B0611241FBEF5
:1000C000CFEFD4E0DEBFCDBF11E0A0E0B1E0E6E6C7
:1000D000FDE002C005900D92A831B107D9F711E0FB
:1000E000A8E1B1E001C01D92A13EB107E1F710E027
:1000F000CCEBD0E004C02297FE010E94AD06C83BC5
:10010000D107C9F70E94FC000C94B1060C940000C2
:1001100086E00E94CA018093240187E00E94E801E2
:100120006A3071058105910548F060932001709354
:100130002101809322019093230108958AE090E0A9
:10014000A0E0B0E08093200190932101A0932201D0
:10015000B093230108950E94660263E084E00E9448
:100160008D010C94880085E291E00C940F0285E2E9
:1001700091E00E94470280931F01893081F487E358
:1001800091E00E94740418161906CCF70E944401ED
:1001900080931E01682F70E089E00E94A302809185
:1001A0002501882341F16091200170912101809106
:1001B0002201909123010E947B03809124010E94DF
:1001C000860290931D0180931C0185E291E00E94BC
:1001D00033029B01AC016093180170931901809365
:1001E0001A0190931B0160911C0170911D01809177
:1001F00024010C94A10108950E94A1030E94AB0068
:10020000C6E4D5E00E94B7002097E1F30E944605BE
:10021000F9CFCF93DF9300D0CDB7DEB799838A8330
:10022000E0913701F09138010280F381E02D42E046
:1002300050E0BE016F5F7F4F87E391E009950F901B
:100240000F90DF91CF910895CF93DF9300D000D02E
:10025000CDB7DEB799838A837B836C83E0913701C6
:10026000F09138010280F381E02D44E050E0BE01BE
:100270006F5F7F4F87E391E009950F900F900F908C
:100280000F90DF91CF91089587E391E00E94A10440
:100290000895CF92DF92EF92FF920F931F9387E31F
:1002A00091E00E94A1046C0187E391E00E94A10407
:1002B000382F20E0C22AD32AEE24D7FCE094FE2C6B
:1002C00087E391E00E94A1048C0187E391E00E9402
:1002D000A104AA2797FDA095BA2F982F88277727E2
:1002E0006627222717FD2095322F98011127002716
:1002F000602B712B822B932B6C297D298E299F29B2
:100300001F910F91FF90EF90DF90CF900895682F8D
:1003100087E391E00E94CE040895CF93DF93D82F16
:10032000C62F40E052EC61E070E087E391E00E946C
:100330008A058D2F0E9487018C2FDF91CF910C941D
:100340008701EF92FF921F93CF93DF9300D000D0ED
:10035000CDB7DEB7182F7B0182EA29833A834B831E
:100360005C830E948701812F0E94870129813A8145
:100370004B815C81CA01B9010E942401C7010F9021
:100380000F900F900F90DF91CF911F91FF90EF9002
:100390000C9409011F93CF93DF93D82F87E391E04B
:1003A0000E9474040297D4F30E944401182F0E9403
:1003B0004401C82F8D2F0E948701812F0E94870141
:1003C0008C2F0E9487018C2FDF91CF911F91089570
:1003D000CF92DF92EF92FF92CF93DF93C82F87E304
:1003E00091E00E9474040597D4F30E944401D82F31
:1003F0000E9449016B017C018C2F0E9487018D2F87
:100400000E948701C701B6010E942401C701B601FD
:10041000DF91CF91FF90EF90DF90CF900895FC0196
:100420001082118212821382148215821682178220
:1004300010860895CF93DF93EC010E9458036983DF
:100440007A838B839C830E944C036D837E838F838E
:10045000988781E08883DF91CF910895FC01108215
:1004600080EB0C9487010F931F93CF93DF93EC01E4
:100470000E944C030D811E812F813885601B710BFA
:10048000820B930BDF91CF911F910F910895CF9322
:10049000DF93EC0187E391E00E947404892B91F0D3
:1004A00087E391E00E94A104813029F4CE010E94EB
:1004B0001A0281E008C0823031F4CE010E942E027F
:1004C00082E001C080E0DF91CF91089561E08DE08E
:1004D0000E94050460E08DE00E943E0461E08CE033
:1004E0000E94050460E08CE00E943E0460E082E02F
:1004F0000E94050460E083E00E94050461E082E060
:100500000E943E0461E083E00C943E048E3008F0CB
:100510008E5087702091060190E4299F900111244C
:10052000822B80937C0080917A00806480937A0093
:1005300080917A0086FDFCCF80917800209179002F
:1005400090E0922B08951F93CF93DF93182FEB0128
:1005500061E00E940504209711F460E004C0CF3FE1
:10056000D10539F461E0812FDF91CF911F910C9477
:100570003E04E12FF0E0E859FF4FE491E330F9F059
:1005800048F4E130B9F0E230A1F584B5806284BD71
:10059000C8BD34C0E630E9F0E73019F1E43049F580
:1005A00080918000806280938000D0938B00C09304
:1005B0008A0024C084B5806884BDC7BD1FC08091F7
:1005C0008000806880938000D0938900C093880069
:1005D00015C08091B00080688093B000C093B300D4
:1005E0000DC08091B00080628093B000C093B400D1
:1005F00005C0C038D1050CF0B5CFAFCFDF91CF919A
:100600001F9108951F920F920FB60F9211242F93EE
:100610003F938F939F93AF93BF9380912F019091BE
:100620003001A0913101B091320130912E0123E0CF
:10063000230F2D3720F40196A11DB11D05C026E81A
:10064000230F0296A11DB11D20932E0180932F012F
:1006500090933001A0933101B09332018091330126
:1006600090913401A0913501B09136010196A11D00
:10067000B11D8093330190933401A0933501B09361
:100680003601BF91AF919F918F913F912F910F9024
:100690000FBE0F901F9018952FB7F89460912F01FF
:1006A0007091300180913101909132012FBF0895F6
:1006B0003FB7F8948091330190913401A0913501B6
:1006C000B091360126B5A89B05C02F3F19F00196C1
:1006D000A11DB11D3FBF6627782F892F9A2F620F6A
:1006E000711D811D911D42E0660F771F881F991FA4
:1006F0004A95D1F70895CF92DF92EF92FF92CF9370
:10070000DF936B017C010E945803EB01C114D104FB
:10071000E104F10479F00E9458036C1B7D0B683EE4
:100720007340A0F381E0C81AD108E108F108C8516C
:10073000DC4FECCFDF91CF91FF90EF90DF90CF9027
:100740000895789484B5826084BD84B5816084BD49
:1007500085B5826085BD85B5816085BDEEE6F0E03A
:10076000808181608083E1E8F0E010828081826096
:100770008083808181608083E0E8F0E08081816017
:100780008083E1EBF0E0808184608083E0EBF0E047
:10079000808181608083EAE7F0E0808184608083EB
:1007A0008081826080838081816080838081806895
:1007B00080831092C1000895833081F028F4813045
:1007C00099F08230A1F008958630A9F08730B9F011
:1007D0008430D1F4809180008F7D03C080918000AF
:1007E0008F7780938000089584B58F7702C084B599
:1007F0008F7D84BD08958091B0008F7703C0809174
:10080000B0008F7D8093B0000895CF93DF9390E088
:10081000FC01E458FF4F2491FC01E057FF4F849105
:10082000882349F190E0880F991FFC01E255FF4FA2
:10083000A591B4918C559F4FFC01C591D4919FB760
:10084000611108C0F8948C91209582238C93888143
:1008500082230AC0623051F4F8948C91322F309583
:1008600083238C938881822B888304C0F8948C9195
:10087000822B8C939FBFDF91CF9108950F931F938D
:10088000CF93DF931F92CDB7DEB7282F30E0F90169
:10089000E859FF4F8491F901E458FF4F1491F90191
:1008A000E057FF4F04910023C9F0882321F06983AA
:1008B0000E94DC036981E02FF0E0EE0FFF1FEC5592
:1008C000FF4FA591B4919FB7F8948C91611103C02B
:1008D0001095812301C0812B8C939FBF0F90DF91D6
:1008E000CF911F910F910895FC0124853585F90161
:1008F000E05CFF4F80819181F901EE5BFF4F208129
:100900003181821B930B8F7399270895FC01848595
:100910009585FC01E05CFF4F40815181FC01EE5B5D
:10092000FF4F208131814217530741F00190F08140
:10093000E02DE80FF91F808190E008958FEF9FEF81
:100940000895FC0184859585FC01E05CFF4F4081A2
:100950005181FC01EE5BFF4F20813181421753072B
:1009600079F0A081B181A80FB91F8C9120813181CC
:100970002F5F3F4F2F7333273183208390E00895FB
:100980008FEF9FEF0895FC0181A1882329F0A489AE
:10099000B5898C9186FFFBCF11A20895CF93DF9389
:1009A000FC0126853785D901A05CBF4F8D919C91B4
:1009B000119701968F739927E901CE5BDF4F48812C
:1009C000598184179507D9F30D90BC91A02DA20FE2
:1009D000B31F6C93A685B785A05CBF4F11969C93FF
:1009E0008E93A689B7892C9181E090E0078C02C094
:1009F000880F991F0A94E2F7282B2C9381E081A39A
:100A00000488F589E02D80818064808381E090E016
:100A1000DF91CF91089508951F920F920FB60F9214
:100A200011242F933F934F938F939F93EF93FF93B3
:100A30008091C00082FD1CC04091C6008091DD0104
:100A40009091DE0101968F7399272091DF013091FB
:100A5000E0018217930771F0E091DD01F091DE0172
:100A6000E356FE4F40839093DE018093DD0102C088
:100A70008091C600FF91EF919F918F914F913F918F
:100A80002F910F900FBE0F901F90189587E391E064
:100A90000E947404892B11F00C940B0508951F9289
:100AA0000F920FB60F9211242F933F938F939F9322
:100AB000EF93FF932091990130919A0180919B01CE
:100AC00090919C012817390731F48091C1008F7DE6
:100AD0008093C10014C0E0919B01F0919C01E75A02
:100AE000FE4F208180919B0190919C0101968F7314
:100AF000992790939C0180939B012093C600FF91BE
:100B0000EF919F918F913F912F910F900FBE0F907A
:100B10001F901895CF92DF92EF92FF92CF93DF93C1
:100B2000EC016A017B01411581EE580761057105F1
:100B3000F9F0EC89FD8981E090E008A002C0880FFF
:100B4000991F0A94E2F7808360E079E08DE390E0FA
:100B5000A70196010E9489062150310941095109D6
:100B60005695479537952795211580E1380798F0D8
:100B7000EC89FD89108260E874E88EE190E0A701BD
:100B800096010E9489062150310941095109569563
:100B9000479537952795E889F9893083EA89FB8954
:100BA000208319A2EE89FF89408181E090E09C01B9
:100BB0000C8C02C0220F331F0A94E2F7422B4083B1
:100BC000EE89FF8940819C010D8C02C0220F331FEA
:100BD0000A94E2F7422B4083EE89FF8940819C0111
:100BE0000E8C02C0220F331F0A94E2F7422B40837F
:100BF000EE89FF8920810F8C02C0880F991F0A940B
:100C0000E2F7809582238083DF91CF91FF90EF9070
:100C1000DF90CF90089510923A011092390188EE3A
:100C200093E0A0E0B0E080933B0190933C01A0935F
:100C30003D01B0933E018BE091E0909338018093A9
:100C400037018DE991E0909344018093430189E558
:100C500091E0909346018093450185EC90E090935C
:100C600048018093470184EC90E090934A0180937F
:100C7000490180EC90E090934C0180934B0181EC12
:100C800090E090934E0180934D0182EC90E0909320
:100C9000500180934F0186EC90E090935201809335
:100CA000510184E08093530183E08093540187E0F5
:100CB0008093550185E08093560181E08093570130
:100CC0000895CF92DF92EF92FF920F931F93CF93ED
:100CD000DF936C017A01EB01E60EF71E00E010E0F5
:100CE000CE15DF0561F06991D601ED91FC9101907F
:100CF000F081E02DC6010995080F191FF1CFC80139
:100D0000DF91CF911F910F91FF90EF90DF90CF90E7
:100D10000895A1E21A2EAA1BBB1BFD010DC0AA1F3C
:100D2000BB1FEE1FFF1FA217B307E407F50720F054
:100D3000A21BB30BE40BF50B661F771F881F991FCF
:100D40001A9469F760957095809590959B01AC0118
:100D5000BD01CF010895EE0FFF1F0590F491E02D26
:060D60000994F894FFCF96
:100D66000000E10120000100000000CE04610674CD
:080D760004A1048604C304007B
:00000001FF
