:100000000C9436000C945E000C945E000C945E0020
:100010000C945E000C945E000C945E000C945E00E8
:100020000C945E000C945E000C945E000C945E00D8
:100030000C945E000C945E000C945E000C945E00C8
:100040000C9475010C945E000C94E7020C942A0346
:100050000C945E000C945E000C945E000C945E00A8
:100060000C945E000C945E009700E60311241FBE02
:10007000CFEFD4E0DEBFCDBF11E0A0E0B1E0ECE116
:10008000F9E002C005900D92A831B107D9F711E04F
:10009000A8E1B1E001C01D92A43DB107E1F710E075
:1000A000CCE6D0E004C02297FE010E948804C83646
:1000B000D107C9F70E948A000C948C040C940000AC
:1000C00084E00E9401018093070186E00E94010103
:1000D00080930601089563E080E80E94C6000C94B6
:1000E000600088E191E00E94570180911801882307
:1000F00059F088E191E00E9443019B01AC0161E06D
:10010000809107010E94DA0068EE73E080E090E0E1
:100110000C94EE010E9414020E946B00C1E2D3E035
:100120000E9471002097E1F30E942103F9CF88E13A
:1001300091E00C941F01CF93DF9300D000D0CDB796
:10014000DEB799838A837B836C83E0912A01F091E7
:100150002B010280F381E02D44E050E0BE016F5F8F
:100160007F4F8AE291E009950F900F900F900F90CA
:10017000DF91CF9108958AE291E00E947C02089578
:10018000682F8AE291E00E94A9020895CF93DF933D
:10019000D82FC62F40E052EC61E070E08AE291E097
:1001A0000E9465038D2F0E94C0008C2FDF91CF919C
:1001B0000C94C0001F93CF93DF9300D000D01F9208
:1001C000CDB7DEB7182F81EA2A833B834C835D834A
:1001D00069830E94C0006981812F60FB87F90E94BA
:1001E000C0002A813B814C815D81CA01B9010F9019
:1001F0000F900F900F900F90DF91CF911F910C9463
:100200009B001F93CF93DF93D82F8AE291E00E9447
:100210004F020297D4F30E94BB00182F0E94BB002C
:10022000C82F8D2F0E94C000812F0E94C0008C2FEC
:100230000E94C0008C2FDF91CF911F910895FC0187
:100240001082118212821382148215821682178202
:1002500010860895CF93DF93EC010E94CB01698350
:100260007A838B839C830E94BF016D837E838F83FF
:10027000988781E08883DF91CF910895FC011082F7
:1002800080EB0C94C0000F931F93CF93DF93EC018E
:100290000E94CB0109811A812B813C81601B710B6B
:1002A000820B930BDF91CF911F910F910895CF9304
:1002B000DF93EC018AE291E00E944F02892B91F0DA
:1002C0008AE291E00E947C02813029F4CE01DF9124
:1002D000CF910C942A01823029F4CE01DF91CF9185
:1002E0000C943E01DF91CF9108951F920F920FB6AB
:1002F0000F9211242F933F938F939F93AF93BF93AC
:100300008091220190912301A0912401B0912501B7
:100310003091210123E0230F2D3720F40196A11DF8
:10032000B11D05C026E8230F0296A11DB11D209323
:1003300021018093220190932301A0932401B09383
:1003400025018091260190912701A0912801B0916B
:1003500029010196A11DB11D8093260190932701CB
:10036000A0932801B0932901BF91AF919F918F91E4
:100370003F912F910F900FBE0F901F9018952FB7A0
:10038000F894609122017091230180912401909151
:1003900025012FBF08953FB7F894809126019091D1
:1003A0002701A0912801B091290126B5A89B05C07D
:1003B0002F3F19F00196A11DB11D3FBF6627782F71
:1003C000892F9A2F620F711D811D911D42E0660FCA
:1003D000771F881F991F4A95D1F70895CF92DF9212
:1003E000EF92FF92CF93DF936B017C010E94CB01D0
:1003F000EB01C114D104E104F10479F00E94CB01B6
:100400006C1B7D0B683E7340A0F381E0C81AD108D5
:10041000E108F108C851DC4FECCFDF91CF91FF909C
:10042000EF90DF90CF900895789484B5826084BD7A
:1004300084B5816084BD85B5826085BD85B58160E8
:1004400085BDEEE6F0E0808181608083E1E8F0E048
:100450001082808182608083808181608083E0E877
:10046000F0E0808181608083E1EBF0E08081846056
:100470008083E0EBF0E0808181608083EAE7F0E058
:1004800080818460808380818260808380818160BC
:1004900080838081806880831092C1000895FC0170
:1004A00024853585F901E05CFF4F80819181F90158
:1004B000EE5BFF4F20813181821B930B8F73992755
:1004C0000895FC0184859585FC01E05CFF4F408127
:1004D0005181FC01EE5BFF4F2081318142175307B0
:1004E00041F00190F081E02DE80FF91F808190E04C
:1004F00008958FEF9FEF0895FC0184859585FC0199
:10050000E05CFF4F40815181FC01EE5BFF4F208199
:1005100031814217530779F0A081B181A80FB91F2B
:100520008C91208131812F5F3F4F2F73332731838F
:10053000208390E008958FEF9FEF0895FC0181A143
:10054000882329F0A489B5898C9186FFFBCF11A25D
:100550000895CF93DF93FC0126853785D901A05CF0
:10056000BF4F8D919C91119701968F739927E90147
:10057000CE5BDF4F4881598184179507D9F30D90E1
:10058000BC91A02DA20FB31F6C93A685B785A05C6C
:10059000BF4F11969C938E93A689B7892C9181E0C9
:1005A00090E0078C02C0880F991F0A94E2F7282B6D
:1005B0002C9381E081A30488F589E02D80818064FB
:1005C000808381E090E0DF91CF91089508951F929C
:1005D0000F920FB60F9211242F933F934F938F9347
:1005E0009F93EF93FF938091C00082FD1CC04091C8
:1005F000C6008091D0019091D10101968F73992707
:100600002091D2013091D3018217930771F0E091CC
:10061000D001F091D101E057FE4F40839093D1017A
:100620008093D00102C08091C600FF91EF919F910D
:100630008F914F913F912F910F900FBE0F901F9070
:1006400018958AE291E00E944F02892B11F00C94D8
:10065000E60208951F920F920FB60F9211242F9366
:100660003F938F939F93EF93FF9320918C01309151
:100670008D0180918E0190918F012817390731F4F7
:100680008091C1008F7D8093C10014C0E0918E01E4
:10069000F0918F01E45BFE4F208180918E0190915B
:1006A0008F0101968F73992790938F0180938E010C
:1006B0002093C600FF91EF919F918F913F912F91D1
:1006C0000F900FBE0F901F901895CF92DF92EF9270
:1006D000FF92CF93DF93EC016A017B01411581EE1C
:1006E000580761057105F9F0EC89FD8981E090E01A
:1006F00008A002C0880F991F0A94E2F7808360E087
:1007000079E08DE390E0A70196010E9464042150F6
:100710003109410951095695479537952795211576
:1007200080E1380798F0EC89FD89108260E874E870
:100730008EE190E0A70196010E94640421503109E6
:10074000410951095695479537952795E889F989C3
:100750003083EA89FB89208319A2EE89FF894081D1
:1007600081E090E09C010C8C02C0220F331F0A94A0
:10077000E2F7422B4083EE89FF8940819C010D8C7A
:1007800002C0220F331F0A94E2F7422B4083EE8906
:10079000FF8940819C010E8C02C0220F331F0A94F6
:1007A000E2F7422B4083EE89FF8920810F8C02C043
:1007B000880F991F0A94E2F7809582238083DF9146
:1007C000CF91FF90EF90DF90CF90089510922D0180
:1007D00010922C0188EE93E0A0E0B0E080932E010F
:1007E00090932F01A0933001B09331018CE091E000
:1007F00090932B0180932A0180E991E09093370137
:10080000809336018CE491E0909339018093380114
:1008100085EC90E090933B0180933A0184EC90E06A
:1008200090933D0180933C0180EC90E090933F01D8
:1008300080933E0181EC90E09093410180934001D0
:1008400082EC90E0909343018093420186EC90E02B
:10085000909345018093440184E08093460183E0B6
:100860008093470187E08093480185E080934901A8
:1008700081E080934A010895CF92DF92EF92FF9238
:100880000F931F93CF93DF936C017A01EB01E60E78
:10089000F71E00E010E0CE15DF0561F06991D6018A
:1008A000ED91FC910190F081E02DC6010995080FB2
:1008B000191FF1CFC801DF91CF911F910F91FF90C8
:1008C000EF90DF90CF900895A1E21A2EAA1BBB1BD8
:1008D000FD010DC0AA1FBB1FEE1FFF1FA217B3070C
:1008E000E407F50720F0A21BB30BE40BF50B661F22
:1008F000771F881F991F1A9469F7609570958095E6
:1009000090959B01AC01BD01CF010895EE0FFF1F33
:0C0910000590F491E02D0994F894FFCFBD
:10091C000000D4012000FFFF00000000A9023C04ED
:08092C004F027C0261029E02F1
:00000001FF
