:100000000C9447010C9478010C9478010C947801BD
:100010000C9478010C9478010C9478010C9478017C
:100020000C9478010C9478010C9478010C9478016C
:100030000C9478010C9478010C9478010C9478015C
:100040000C9478010C9478010C9478010C9478014C
:100050000C9478010C9478010C9478010C94AC0306
:100060000C9478010C9420060C9410070C947801E1
:100070000C9478010C9478010C9478010C9478011C
:100080000C9478010C9478010C9478010C9478010C
:100090000C9454060C944F070C9478010C9478013E
:1000A0000C9478010C9478010C9478010C947801EC
:1000B0000C9478010C9478010C9478010C947801DC
:1000C0000C9478010C9478010C9478010C948806B7
:1000D0000C948E070C9478010C94BC060C94CD07FC
:1000E0000C9478019C049F0492049604D604A30403
:1000F000A704AD04B104B504BB04BF04C304D60413
:10010000C904CD04D1040000090A02080B0C0D0734
:1001100006030401000000000000000000000000D1
:1001200000000000000000000000000000000000CF
:10013000000011100F00000000000000000000008F
:10014000000000000000000000000000010210207C
:1001500020080810204010204080020102010804FD
:100160000201010204081020408080402010080491
:1001700002018004020180402010080402010804EA
:10018000020101020408102040800102040810202E
:100190004080050505050705080808080202020257
:1001A0000A0A080804040404010101010101010113
:1001B0000303030303030303040707070C0C0C0CDE
:1001C0000C0C0C0C020202020606060606060606C7
:1001D0000B0B0B0B0B0B0B0B00002000230026005E
:1001E00029002C002F00320000010000030106014D
:1001F000090100002200250028002B002E003100FC
:10020000340002010000050108010B01000021007B
:10021000240027002A002D003000330001010000D7
:10022000040107010A010C946F050C94EF060C946D
:10023000CD040C94C9050C94B1040C9481050C9464
:10024000BF040C94D6040C94D1040C949F040C9419
:10025000BB040C948D080C94A3040C94B5040C946A
:100260009C050C9496040C94BE050C9483020C948B
:1002700092040C94AD040C94C3090C94A7040C9440
:10028000C3040C949C040C94C90483028D081124AB
:100290001FBECFEFD1E2DEBFCDBF00E00CBF12E04A
:1002A000A0E0B2E0E2E3F4E100E00BBF02C007909F
:1002B0000D92A631B107D9F715E0A6E1B2E001C071
:1002C0001D92A630B107E1F712E0CEE8D2E000E0DF
:1002D00006C022970109FE010BBF0E94130ACA380B
:1002E000D10780E00807A9F70E9476020C94170A4C
:1002F0000C94000090914B02EEE1F2E080E089174F
:1003000031F011921192119211928F5FF8CF0E94E9
:10031000F60360931A0270931B0280931C02909361
:100320001D021092160210921702109218021092DB
:1003300019020895CF93C0E080914B02C81770F462
:1003400084E0C89FF0011124E25EFD4F608171815D
:10035000828193810E948702CF5FEECFCF910C9470
:100360007A010F931F9310E080914B02181788F5C4
:10037000E12FF0E0EB5BFD4F808180933E020E9415
:10038000460580933D02E0913E02F0E0DF01AA5C69
:10039000BD4F9C91282F291B20933C029091400235
:1003A000992311F0291312C0EE0FFF1FEE0FFF1F4C
:1003B000E25EFD4F40815181628173814F5F5F4FEB
:1003C0006F4F7F4F40835183628373838C931F5F92
:1003D000CBCF0E94F60300911A0210911B022091CC
:1003E0001C0230911D02601B710B820B930B6093FA
:1003F00016027093170280931802909319021F91AE
:100400000F910895CF9385E00E94040380934B02DF
:100410008823D9F1C0E080914B02C817A0F484E092
:100420000E94040380933E02EC2FF0E0EB5BFD4F53
:10043000808360E00E94D70461E080913E020E94C8
:100440001005CF5FE8CF87E00E9422036A30710574
:100450008105910548F060934102709342028093B8
:100460004302909344020CC08AE090E0A0E0B0E028
:100470008093410290934202A0934302B0934402BE
:100480008AE00E94040380934002CF9108950E9465
:100490008C0362E085E00E94F0020C9402028CE47E
:1004A00092E00E946D0380933F02813011F40E941C
:1004B0007A014091160250911702609118027091D2
:1004C00019028091410290914202A0914302B091A1
:1004D000440284179507A607B70710F40E949A01F3
:1004E00080914C0281110C94B10108950E94250461
:1004F0000E944702CFEED6E00E944F022097E1F320
:100500000E94EF06F9CF8CE492E00C944903CF935C
:10051000DF9300D01F92CDB7DEB799838A837B83A8
:100520006C83E091C402F091C5020280F381E02D5A
:1005300044E050E0BE016F5F7F4F84EC92E019957C
:100540000F900F900F900F90DF91CF91089584EC52
:1005500092E00E949C050895CF92DF92EF92FF9265
:100560000F931F9384EC92E00E949C056C0184EC35
:1005700092E00E949C05382F20E0C22AD32AEE2464
:10058000D7FCE094FE2C84EC92E00E949C058C0148
:1005900084EC92E00E949C05AA2797FDA095BA2FB3
:1005A000982F882777276627222717FD2095322F37
:1005B000980111270027602B712B822B932B6C291C
:1005C0007D298E299F291F910F91FF90EF90DF9039
:1005D000CF900895682F84EC92E00E94C905089599
:1005E000CF93DF93D82FC62F40E052EC61E070E04C
:1005F00084EC92E00E940C088D2F0E94EA028C2F5E
:10060000DF91CF910C94EA021F93CF93DF93D82F01
:1006100084EC92E00E946F050297D4F30E94A70237
:10062000182F0E94A702C82F8D2F0E94EA02812F47
:100630000E94EA028C2F0E94EA028C2FDF91CF9158
:100640001F910895CF92DF92EF92FF92CF93DF93A5
:10065000C82F84EC92E00E946F050597D4F30E94A6
:10066000A702D82F0E94AC026B017C018C2F0E9444
:10067000EA028D2F0E94EA02C701B6010E9487029A
:10068000C701B601DF91CF91FF90EF90DF90CF903F
:100690000895FC0110821182128213821482158245
:1006A0001682178210860895CF93DF93EC010E9483
:1006B000020469837A838B839C830E94F6036D8393
:1006C0007E838F83988781E08883DF91CF9108951F
:1006D000FC01108280EB0C94EA02CF93DF93EC01D3
:1006E00084EC92E00E946F05892B91F084EC92E0FB
:1006F0000E949C05813029F4CE010E94540381E0C0
:1007000008C0823031F4CE010E94680382E001C04B
:1007100080E0DF91CF91089561E08DE00E94D704E1
:1007200060E08DE00E94100561E08CE00E94D7043B
:1007300060E08CE00E94100560E082E00E94D70437
:1007400060E083E00E94D70461E082E00E9410052F
:1007500061E083E00C9410051F920F920FB60F9288
:1007600011242F933F938F939F93AF93BF938091C7
:10077000560290915702A0915802B09159023091BF
:10078000550223E0230F2D3720F40196A11DB11D42
:1007900005C026E8230F0296A11DB11D2093550226
:1007A0008093560290935702A0935802B093590237
:1007B00080915A0290915B02A0915C02B0915D021F
:1007C0000196A11DB11D80935A0290935B02A093E4
:1007D0005C02B0935D02BF91AF919F918F913F9169
:1007E0002F910F900FBE0F901F9018952FB7F89470
:1007F000609156027091570280915802909159026F
:100800002FBF08953FB7F89480915A0290915B02F0
:10081000A0915C02B0915D0226B5A89B05C02F3F58
:1008200019F00196A11DB11D3FBF6627782F892FB2
:100830009A2F620F711D811D911D42E0660F771F77
:10084000881F991F4A95D1F70895789484B58260DE
:1008500084BD84B5816084BD85B5826085BD85B564
:10086000816085BDEEE6F0E0808181608083E1E813
:10087000F0E010828081826080838081816080834B
:10088000E0E8F0E0808181608083E1EBF0E080814E
:1008900084608083E0EBF0E0808181608083E1E927
:1008A000F0E0808182608083808181608083E0E9E4
:1008B000F0E0808181608083E1EAF0E08081826005
:1008C0008083808181608083E0EAF0E080818160C4
:1008D0008083E1E2F1E080818260808380818160B9
:1008E0008083E0E2F1E0808181608083EAE7F0E0EC
:1008F0008081846080838081826080838081816048
:1009000080838081806880831092C100089590E088
:10091000FC013197E131F10508F048C0EE58FF4F76
:100920000C940D0A809180008F7703C08091800025
:100930008F7D80938000089584B58F7702C084B541
:100940008F7D84BD08958091B0008F7703C0809122
:10095000B0008F7D8093B0000895809190008F77D4
:1009600007C0809190008F7D03C080919000877FA9
:100970008093900008958091A0008F7707C08091A8
:10098000A0008F7D03C08091A000877F8093A0008E
:100990000895809120018F7707C0809120018F7D7D
:1009A00003C080912001877F809320010895CF9319
:1009B000DF9390E0FC01E45BFE4F2491FC01EE56D6
:1009C000FE4F8491882349F190E0880F991FFC0124
:1009D000E45FFD4FA591B4918E509E4FFC01C591EF
:1009E000D4919FB7611108C0F8948C91209582230F
:1009F0008C93888182230AC0623051F4F8948C91E0
:100A0000322F309583238C938881822B888304C076
:100A1000F8948C91822B8C939FBFDF91CF91089596
:100A20000F931F93CF93DF931F92CDB7DEB7282F7D
:100A300030E0F901EA5FFE4F8491F901E45BFE4F7B
:100A40001491F901EE56FE4F04910023C9F088235A
:100A500021F069830E9487046981E02FF0E0EE0FA6
:100A6000FF1FEE50FE4FA591B4919FB7F8948C9163
:100A7000611103C01095812301C0812B8C939FBF0E
:100A80000F90DF91CF911F910F910895CF93DF9336
:100A9000282F30E0F901EA5FFE4F8491F901E45B11
:100AA000FE4FD491F901EE56FE4FC491CC2391F044
:100AB00081110E948704EC2FF0E0EE0FFF1FE85237
:100AC000FE4FA591B4912C912D2381E090E021F46B
:100AD00080E002C080E090E0DF91CF910895FC01BA
:100AE00024853585F901E05CFF4F80819181F90112
:100AF000EE5BFF4F20813181821B930B8F7399270F
:100B00000895FC0184859585FC01E05CFF4F4081E0
:100B10005181FC01EE5BFF4F208131814217530769
:100B200041F00190F081E02DE80FF91F808190E005
:100B300008958FEF9FEF0895FC0184859585FC0152
:100B4000E05CFF4F40815181FC01EE5BFF4F208153
:100B500031814217530779F0A081B181A80FB91FE5
:100B60008C91208131812F5F3F4F2F733327318349
:100B7000208390E008958FEF9FEF0895FC0181A1FD
:100B8000882329F0A489B5898C9186FFFBCF11A217
:100B90000895CF93DF93FC0126853785D901A05CAA
:100BA000BF4F8D919C91119701968F739927E90101
:100BB000CE5BDF4F4881598184179507D9F30D909B
:100BC000BC91A02DA20FB31F6C93A685B785A05C26
:100BD000BF4F11969C938E93A689B7892C9181E083
:100BE00090E0078C02C0880F991F0A94E2F7282B27
:100BF0002C9381E081A30488F589E02D80818064B5
:100C0000808381E090E0DF91CF910895FB01E05C6B
:100C1000FF4F208131812F5F3F4F2F733327DB013F
:100C2000AE5BBF4F4D915C912417350739F0A08121
:100C3000B181A60FB71F8C93318320830895089547
:100C40001F920F920FB60F9211240BB60F922F9393
:100C50003F934F935F936F937F938F939F93AF9344
:100C6000BF93EF93FF938091C00082FD07C08091F6
:100C7000C60062EC74E00E94060602C08091C600C5
:100C8000FF91EF91BF91AF919F918F917F916F9164
:100C90005F914F913F912F910F900BBE0F900FBE20
:100CA0000F901F90189508951F920F920FB60F92F4
:100CB00011240BB60F922F933F934F935F936F9333
:100CC0007F938F939F93AF93BF93EF93FF93809105
:100CD000C80082FD07C08091CE006AE374E00E94E4
:100CE000060602C08091CE00FF91EF91BF91AF91B7
:100CF0009F918F917F916F915F914F913F912F9134
:100D00000F900BBE0F900FBE0F901F901895089577
:100D10001F920F920FB60F9211240BB60F922F93C2
:100D20003F934F935F936F937F938F939F93AF9373
:100D3000BF93EF93FF938091D00082FD07C0809115
:100D4000D60062EB73E00E94060602C08091D600D6
:100D5000FF91EF91BF91AF919F918F917F916F9193
:100D60005F914F913F912F910F900BBE0F900FBE4F
:100D70000F901F90189508951F920F920FB60F9223
:100D800011240BB60F922F933F934F935F936F9362
:100D90007F938F939F93AF93BF93EF93FF93809134
:100DA000300182FD07C0809136016AE273E00E9443
:100DB000060602C080913601FF91EF91BF91AF917D
:100DC0009F918F917F916F915F914F913F912F9163
:100DD0000F900BBE0F900FBE0F901F90189584ECD4
:100DE00092E00E946F05892B11F00E941F0682EA93
:100DF00092E00E946F05892B11F00E94530680E853
:100E000092E00E946F05892B11F00E9487068EE503
:100E100092E00E946F05892B11F00C94BB06089597
:100E20001F920F920FB60F9211240BB60F922F93B1
:100E30003F938F939F93EF93FF932091BE04309144
:100E4000BF048091C0049091C1042817390731F480
:100E50008091C1008F7D8093C10014C0E091C004D7
:100E6000F091C104E258FB4F20818091C004909121
:100E7000C10401968F7399279093C1048093C00495
:100E80002093C600FF91EF919F918F913F912F91F9
:100E90000F900BBE0F900FBE0F901F9018951F92D2
:100EA0000F920FB60F9211240BB60F922F933F9310
:100EB0008F939F93EF93FF932091360430913704E3
:100EC00080913804909139042817390731F48091C2
:100ED000C9008F7D8093C90014C0E0913804F0915F
:100EE0003904EA50FC4F20818091380490913904F4
:100EF00001968F7399279093390480933804209337
:100F0000CE00FF91EF919F918F913F912F910F9084
:100F10000BBE0F900FBE0F901F9018951F920F924F
:100F20000FB60F9211240BB60F922F933F938F930E
:100F30009F93EF93FF932091AE033091AF03809185
:100F4000B0039091B1032817390731F48091D10093
:100F50008F7D8093D10014C0E091B003F091B10374
:100F6000E259FC4F20818091B0039091B10301962A
:100F70008F7399279093B1038093B0032093D60089
:100F8000FF91EF919F918F913F912F910F900BBE09
:100F90000F900FBE0F901F9018951F920F920FB6D3
:100FA0000F9211240BB60F922F933F938F939F9321
:100FB000EF93FF932091260330912703809128031C
:100FC000909129032817390731F4809131018F7DE1
:100FD0008093310114C0E0912803F0912903EA5174
:100FE000FD4F2081809128039091290301968F73F2
:100FF0009927909329038093280320933601FF912A
:10100000EF919F918F913F912F910F900BBE0F9079
:101010000FBE0F901F901895CF92DF92EF92FF9224
:10102000CF93DF93EC016A017B01411581EE5807F4
:1010300061057105F9F0EC89FD8981E090E008A077
:1010400002C0880F991F0A94E2F7808360E079E07C
:101050008DE390E0A70196010E94EB092150310930
:10106000410951095695479537952795211580E1F6
:10107000380798F0EC89FD89108260E874E88EE109
:1010800090E0A70196010E94EB0921503109410926
:1010900051095695479537952795E889F989308301
:1010A000EA89FB89208319A2EE89FF89408181E0CA
:1010B00090E09C010C8C02C0220F331F0A94E2F7CF
:1010C000422B4083EE89FF8940819C010D8C02C038
:1010D000220F331F0A94E2F7422B4083EE89FF89E7
:1010E00040819C010E8C02C0220F331F0A94E2F74C
:1010F000422B4083EE89FF8920810F8C02C0880F2C
:10110000991F0A94E2F7809582238083DF91CF9123
:10111000FF90EF90DF90CF900895CF931092C70289
:101120001092C60288EE93E0A0E0B0E08093C8027F
:101130009093C902A093CA02B093CB022AE032E096
:101140003093C5022093C40242EC54E05093D10284
:101150004093D0024EE754E05093D3024093D20222
:1011600045EC50E05093D5024093D40244EC50E05B
:101170005093D7024093D60240EC50E05093D902EE
:101180004093D80241EC50E05093DB024093DA02E6
:1011900042EC50E05093DD024093DC0246EC50E01C
:1011A0005093DF024093DE02C4E0C093E002F3E01C
:1011B000F093E102E7E0E093E20275E07093E3026E
:1011C00061E06093E4021092A5021092A402809361
:1011D000A6029093A702A093A802B093A90230930D
:1011E000A3022093A2024AE354E05093AF0240933B
:1011F000AE0246EF53E05093B1024093B0024DEC83
:1012000050E05093B3024093B2024CEC50E0509344
:10121000B5024093B40248EC50E05093B7024093BB
:10122000B60249EC50E05093B9024093B8024AEC40
:1012300050E05093BB024093BA024EEC50E0509302
:10124000BD024093BC02C093BE02F093BF02E09384
:10125000C0027093C1026093C20210928302109286
:1012600082028093840290938502A0938602B093B9
:101270008702309381022093800242EB53E0509327
:101280008D0240938C024EE653E050938F024093C0
:101290008E0245ED50E0509391024093900244ED50
:1012A00050E0509393024093920240ED50E05093EF
:1012B00095024093940241ED50E050939702409381
:1012C000960242ED50E0509399024093980246ED09
:1012D00050E050939B0240939A02C0939C02F0937B
:1012E0009D02E0939E0270939F026093A002109271
:1012F0006102109260028093620290936302A09355
:101300006402B093650230935F0220935E028AE22A
:1013100093E090936B0280936A0286EE92E0909342
:101320006D0280936C0285E391E090936F0280934D
:101330006E0284E391E0909371028093700280E3E7
:1013400091E0909373028093720281E391E0909315
:1013500075028093740282E391E090937702809308
:10136000760286E391E09093790280937802C093AD
:101370007A02F0937B02E0937C0270937D0260938B
:101380007E02CF910895CF92DF92EF92FF920F935A
:101390001F93CF93DF936C017A01EB01E60EF71EEA
:1013A00000E010E0CE15DF0561F06991D601ED9106
:1013B000FC910190F081E02DC6011995080F191FCD
:1013C000F1CFC801DF91CF911F910F91FF90EF9066
:1013D000DF90CF900895A1E21A2EAA1BBB1BFD013E
:1013E0000DC0AA1FBB1FEE1FFF1FA217B307E40704
:1013F000F50720F0A21BB30BE40BF50B661F771F5C
:10140000881F991F1A9469F760957095809590953B
:101410009B01AC01BD01CF010895EE0FFF1F0590A8
:10142000F491E02D19940790F691E02D1994F89419
:02143000FFCFEC
:1014320000000605200000000000C905C3096F0571
:061442009C058105BE05BA
:00000001FF
