:100000000C9463000C948B000C948B000C948B006C
:100010000C948B000C948B000C948B000C948B0034
:100020000C948B000C948B000C948B000C948B0024
:100030000C948B000C948B000C948B000C948B0014
:100040000C94BF020C948B000C94CC040C940F0500
:100050000C948B000C948B000C948B000C948B00F4
:100060000C948B000C948B00000000070002010030
:100070000003040600000000000000000102040864
:100080001020408001020408102001020408102002
:10009000040404040404040402020202020203032E
:1000A00003030303000000002300260029000000D2
:1000B0000000250028002B0000000000240027007D
:1000C0002A009601CB0511241FBECFEFD4E0DEBF7E
:1000D000CDBF11E0A0E0B1E0E6EEFCE002C005908B
:1000E0000D92A631B107D9F712E0A6E1B1E001C047
:1000F0001D92A830B107E1F710E0C6ECD0E004C0D3
:100100002297FE010E946D06C23CD107C9F70E94EA
:1001100089010C9471060C94000090914B01EEE162
:10012000F1E080E0891731F0119211921192119251
:100130008F5FF8CF0E94090360931A0170931B012F
:1001400080931C0190931D011092160110921701CB
:1001500010921801109219010895CF93C0E0809178
:100160004B01C81770F484E0C89FF0011124E25ECF
:10017000FE4F60817181828193810E949A01CF5FDD
:10018000EECFCF910C948D000F931F9310E08091D0
:100190004B01181788F5E12FF0E0EB5BFE4F8081F3
:1001A00080933E010E940B0480933D01E0913E014B
:1001B000F0E0DF01AA5CBE4F9C91282F291B209301
:1001C0003C0190914001992311F0291312C0EE0FC8
:1001D000FF1FEE0FFF1FE25EFE4F408151816281E3
:1001E00073814F5F5F4F6F4F7F4F408351836283B7
:1001F00073838C931F5FCBCF0E94090300911A0178
:1002000010911B0120911C0130911D01601B710B8D
:10021000820B930B60931601709317018093180162
:10022000909319011F910F910895CF9385E00E943B
:10023000170280934B018823D9F1C0E080914B01D4
:10024000C817A0F484E00E94170280933E01EC2FAF
:10025000F0E0EB5BFE4F808360E00E949C0361E076
:1002600080913E010E94D503CF5FE8CF87E00E94D6
:1002700035026A3071058105910548F060934101AE
:100280007093420180934301909344010CC08AE033
:1002900090E0A0E0B0E08093410190934201A093F0
:1002A0004301B09344018AE00E9417028093400109
:1002B000CF9108950E949F0262E085E00E940302B0
:1002C0000C9415018CE491E00E94800280933F0120
:1002D000813011F40E948D00409116015091170158
:1002E0006091180170911901809141019091420132
:1002F000A0914301B091440184179507A607B70761
:1003000010F40E94AD0080914C0181110C94C40046
:1003100008950E9438030E945A01C6E0D5E00E9469
:1003200062012097E1F30E940605F9CF8CE491E089
:100330000C945C02CF93DF9300D000D0CDB7DEB732
:1003400099838A837B836C83E0915E01F0915F01E6
:100350000280F381E02D44E050E0BE016F5F7F4FEB
:100360008EE591E009950F900F900F900F90DF911F
:10037000CF9108958EE591E00E9461040895CF9297
:10038000DF92EF92FF920F931F938EE591E00E9410
:1003900061046C018EE591E00E946104382F20E039
:1003A000C22AD32AEE24D7FCE094FE2C8EE591E0FD
:1003B0000E9461048C018EE591E00E946104AA27ED
:1003C00097FDA095BA2F982F882777276627222791
:1003D00017FD2095322F980111270027602B712BD4
:1003E000822B932B6C297D298E299F291F910F9198
:1003F000FF90EF90DF90CF900895682F8EE591E009
:100400000E948E040895CF93DF93D82FC62F40E02B
:1004100052EC61E070E08EE591E00E944A058D2F7C
:100420000E94FD018C2FDF91CF910C94FD011F9351
:10043000CF93DF93D82F8EE591E00E94340402978A
:10044000D4F30E94BA01182F0E94BA01C82F8D2F31
:100450000E94FD01812F0E94FD018C2F0E94FD0151
:100460008C2FDF91CF911F910895CF92DF92EF9261
:10047000FF92CF93DF93C82F8EE591E00E94340462
:100480000597D4F30E94BA01D82F0E94BF016B01D7
:100490007C018C2F0E94FD018D2F0E94FD01C70160
:1004A000B6010E949A01C701B601DF91CF91FF907A
:1004B000EF90DF90CF900895FC011082118212829C
:1004C0001382148215821682178210860895CF93A4
:1004D000DF93EC010E94150369837A838B839C83ED
:1004E0000E9409036D837E838F83988781E08883D0
:1004F000DF91CF910895FC01108280EB0C94FD01F7
:10050000CF93DF93EC018EE591E00E943404892BB8
:1005100091F08EE591E00E946104813029F4CE01D2
:100520000E94670281E008C0823031F4CE010E944F
:100530007B0282E001C080E0DF91CF91089561E00D
:100540008DE00E949C0360E08DE00E94D50361E095
:100550008CE00E949C0360E08CE00E94D50360E088
:1005600082E00E949C0360E083E00E949C0361E0C3
:1005700082E00E94D50361E083E00C94D5031F92D2
:100580000F920FB60F9211242F933F938F939F9347
:10059000AF93BF938091560190915701A09158015C
:1005A000B09159013091550123E0230F2D3720F4EC
:1005B0000196A11DB11D05C026E8230F0296A11DBD
:1005C000B11D209355018093560190935701A0933C
:1005D0005801B093590180915A0190915B01A0910B
:1005E0005C01B0915D010196A11DB11D80935A017E
:1005F00090935B01A0935C01B0935D01BF91AF91BB
:100600009F918F913F912F910F900FBE0F901F9050
:1006100018952FB7F8946091560170915701809109
:100620005801909159012FBF08953FB7F8948091D8
:100630005A0190915B01A0915C01B0915D0126B5DA
:10064000A89B05C02F3F19F00196A11DB11D3FBF0A
:100650006627782F892F9A2F620F711D811D911D9A
:1006600042E0660F771F881F991F4A95D1F70895BA
:10067000789484B5826084BD84B5816084BD85B57D
:10068000826085BD85B5816085BDEEE6F0E0808144
:1006900081608083E1E8F0E0108280818260808365
:1006A000808181608083E0E8F0E0808181608083E8
:1006B000E1EBF0E0808184608083E0EBF0E080811A
:1006C00081608083EAE7F0E08081846080838081BC
:1006D0008260808380818160808380818068808364
:1006E0001092C1000895833081F028F4813099F090
:1006F0008230A1F008958630A9F08730B9F08430B7
:10070000D1F4809180008F7D03C0809180008F772D
:1007100080938000089584B58F7702C084B58F7D63
:1007200084BD08958091B0008F7703C08091B000A0
:100730008F7D8093B0000895CF93DF9390E0FC010C
:10074000E458FF4F2491FC01E057FF4F8491882328
:1007500049F190E0880F991FFC01E854FF4FA591E3
:10076000B49182559F4FFC01C591D4919FB76111FF
:1007700008C0F8948C91209582238C9388818223E1
:100780000AC0623051F4F8948C91322F3095832353
:100790008C938881822B888304C0F8948C91822B5F
:1007A0008C939FBFDF91CF9108950F931F93CF93A9
:1007B000DF931F92CDB7DEB7282F30E0F901E8595B
:1007C000FF4F8491F901E458FF4F1491F901E0576C
:1007D000FF4F04910023C9F0882321F069830E9410
:1007E00073036981E02FF0E0EE0FFF1FE255FF4F2A
:1007F000A591B4919FB7F8948C91611103C01095A5
:10080000812301C0812B8C939FBF0F90DF91CF91EB
:100810001F910F910895CF93DF93282F30E0F901B6
:10082000E859FF4F8491F901E458FF4FD491F90141
:10083000E057FF4FC491CC2391F081110E947303C4
:10084000EC2FF0E0EE0FFF1FEC55FF4FA591B49198
:100850002C912D2381E090E021F480E002C080E023
:1008600090E0DF91CF910895FC0124853585F90151
:10087000E05CFF4F80819181F901EE5BFF4F2081A9
:100880003181821B930B8F7399270895FC01848516
:100890009585FC01E05CFF4F40815181FC01EE5BDE
:1008A000FF4F208131814217530741F00190F081C1
:1008B000E02DE80FF91F808190E008958FEF9FEF02
:1008C0000895FC0184859585FC01E05CFF4F408123
:1008D0005181FC01EE5BFF4F2081318142175307AC
:1008E00079F0A081B181A80FB91F8C91208131814D
:1008F0002F5F3F4F2F7333273183208390E008957C
:100900008FEF9FEF0895FC0181A1882329F0A4892E
:10091000B5898C9186FFFBCF11A20895CF93DF9309
:10092000FC0126853785D901A05CBF4F8D919C9134
:10093000119701968F739927E901CE5BDF4F4881AC
:10094000598184179507D9F30D90BC91A02DA20F62
:10095000B31F6C93A685B785A05CBF4F11969C937F
:100960008E93A689B7892C9181E090E0078C02C014
:10097000880F991F0A94E2F7282B2C9381E081A31A
:100980000488F589E02D80818064808381E090E097
:10099000DF91CF91089508951F920F920FB60F9295
:1009A00011242F933F934F938F939F93EF93FF9334
:1009B0008091C00082FD1CC04091C600809104025D
:1009C0009091050201968F7399272091060230912C
:1009D00007028217930771F0E0910402F09105027B
:1009E000EC53FE4F4083909305028093040202C0B3
:1009F0008091C600FF91EF919F918F914F913F9110
:100A00002F910F900FBE0F901F9018958EE591E0DB
:100A10000E943404892B11F00C94CB0408951F928A
:100A20000F920FB60F9211242F933F938F939F93A2
:100A3000EF93FF932091C0013091C1018091C201D9
:100A40009091C3012817390731F48091C1008F7D3F
:100A50008093C10014C0E091C201F091C301E0583D
:100A6000FE4F20818091C2019091C30101968F7346
:100A700099279093C3018093C2012093C600FF91F0
:100A8000EF919F918F913F912F910F900FBE0F90FB
:100A90001F901895CF92DF92EF92FF92CF93DF9342
:100AA000EC016A017B01411581EE58076105710572
:100AB000F9F0EC89FD8981E090E008A002C0880F80
:100AC000991F0A94E2F7808360E079E08DE390E07B
:100AD000A70196010E944906215031094109510997
:100AE0005695479537952795211580E1380798F059
:100AF000EC89FD89108260E874E88EE190E0A7013E
:100B000096010E9449062150310941095109569523
:100B1000479537952795E889F9893083EA89FB89D4
:100B2000208319A2EE89FF89408181E090E09C0139
:100B30000C8C02C0220F331F0A94E2F7422B408331
:100B4000EE89FF8940819C010D8C02C0220F331F6A
:100B50000A94E2F7422B4083EE89FF8940819C0191
:100B60000E8C02C0220F331F0A94E2F7422B4083FF
:100B7000EE89FF8920810F8C02C0880F991F0A948B
:100B8000E2F7809582238083DF91CF91FF90EF90F1
:100B9000DF90CF900895109261011092600188EE6D
:100BA00093E0A0E0B0E08093620190936301A09392
:100BB0006401B09365018AE091E090935F018093B6
:100BC0005E0184EC91E090936B0180936A0180E870
:100BD00091E090936D0180936C0185EC90E090938F
:100BE0006F0180936E0184EC90E09093710180938B
:100BF000700180EC90E0909373018093720181EC1E
:100C000090E0909375018093740182EC90E0909352
:100C100077018093760186EC90E090937901809340
:100C2000780184E080937A0183E080937B0187E000
:100C300080937C0185E080937D0181E080937E013B
:100C40000895CF92DF92EF92FF920F931F93CF936D
:100C5000DF936C017A01EB01E60EF71E00E010E075
:100C6000CE15DF0561F06991D601ED91FC910190FF
:100C7000F081E02DC6010995080F191FF1CFC801B9
:100C8000DF91CF911F910F91FF90EF90DF90CF9068
:100C90000895A1E21A2EAA1BBB1BFD010DC0AA1FBD
:100CA000BB1FEE1FFF1FA217B307E407F50720F0D5
:100CB000A21BB30BE40BF50B661F771F881F991F50
:100CC0001A9469F760957095809590959B01AC0199
:100CD000BD01CF010895EE0FFF1F0590F491E02DA7
:060CE0000994F894FFCF17
:100CE600000008022000000000008E0421063404E3
:060CF600610446048304C2
:00000001FF
