:100000000C945D000C9485000C9485000C94850084
:100010000C9485000C9485000C9485000C9485004C
:100020000C9485000C9485000C9485000C9485003C
:100030000C9485000C9485000C9485000C9485002C
:100040000C941B010C9485000C94D0020C941303A7
:100050000C9485000C9485000C9485000C9485000C
:100060000C9485000C94850000000007000201003C
:100070000003040600000000000000000102040864
:100080001020408001020408102001020408102002
:10009000040404040404040402020202020203032E
:1000A0000303030300000000250028002B000000CC
:1000B0000000240027002A00CF0311241FBECFEF29
:1000C000D8E0DEBFCDBF11E0A0E0B1E0EEEEF8E099
:1000D00002C005900D92A631B107D9F711E0A6E153
:1000E000B1E001C01D92AF3CB107E1F710E0CAEBEF
:1000F000D0E004C02297FE010E947104C83BD107E2
:10010000C9F70E94B1000C9475040C9400000E9481
:10011000FB0062E081E80C94C90085E291E00E9456
:100120003802892BE9F08CE00E94DD00682F70E036
:1001300070931B0160931A018F70282F30E0309369
:100140001901209318016295617060931601109255
:1001500017012C5031092230310510F40C940202A1
:1001600008950E9465010E948700CAE0D3E00E94C2
:100170008D002097E1F30E940A03F9CF85E291E018
:100180000E9465020895682F85E291E00E94920224
:100190000895CF93DF93D82FC62F40E052EC61E053
:1001A00070E085E291E00E944E038D2F0E94C30013
:1001B0008C2FDF91CF910C94C3001F93CF93DF93CB
:1001C000D82F85E291E00E9438020297D4F30E9472
:1001D000BE00182F0E94BE00C82F8D2F0E94C300A2
:1001E000812F0E94C3008C2F0E94C3008C2FDF91AF
:1001F000CF911F91089561E08DE00E94C90160E0F8
:100200008DE00E94020261E08CE00E94C90160E082
:100210008CE00E94020260E082E00E94C90160E07E
:1002200083E00E94C90161E082E00E94020261E075
:1002300083E00C9402021F920F920FB60F921124CA
:100240002F933F938F939F93AF93BF9380911D0103
:1002500090911E01A0911F01B091200130911C01CD
:1002600023E0230F2D3720F40196A11DB11D05C0F9
:1002700026E8230F0296A11DB11D20931C01809337
:100280001D0190931E01A0931F01B0932001809146
:10029000210190912201A0912301B09124010196A6
:1002A000A11DB11D8093210190932201A0932301F0
:1002B000B0932401BF91AF919F918F913F912F9166
:1002C0000F900FBE0F901F901895789484B58260A0
:1002D00084BD84B5816084BD85B5826085BD85B5EA
:1002E000816085BDEEE6F0E0808181608083E1E899
:1002F000F0E01082808182608083808181608083D1
:10030000E0E8F0E0808181608083E1EBF0E08081D3
:1003100084608083E0EBF0E0808181608083EAE7A5
:10032000F0E080818460808380818260808380812E
:10033000816080838081806880831092C1000895ED
:10034000833081F028F4813099F08230A1F0089553
:100350008630A9F08730B9F08430D1F480918000E4
:100360008F7D03C0809180008F77809380000895F7
:1003700084B58F7702C084B58F7D84BD0895809148
:10038000B0008F7703C08091B0008F7D8093B00064
:100390000895CF93DF9390E0FC01E458FF4F249140
:1003A000FC01E057FF4F8491882349F190E0880FCA
:1003B000991FFC01E255FF4FA591B4918C559F4FB9
:1003C000FC01C591D4919FB7611108C0F8948C913C
:1003D000209582238C93888182230AC0623051F455
:1003E000F8948C91322F309583238C938881822BC3
:1003F000888304C0F8948C91822B8C939FBFDF91EB
:10040000CF9108950F931F93CF93DF931F92CDB792
:10041000DEB7282F30E0F901E859FF4F8491F90148
:10042000E458FF4F1491F901E057FF4F0491002366
:10043000C9F0882321F069830E94A0016981E02F1F
:10044000F0E0EE0FFF1FEC55FF4FA591B4919FB761
:10045000F8948C91611103C01095812301C0812B08
:100460008C939FBF0F90DF91CF911F910F910895B3
:10047000FC0124853585F901E05CFF4F8081918185
:10048000F901EE5BFF4F20813181821B930B8F734B
:1004900099270895FC0184859585FC01E05CFF4F58
:1004A00040815181FC01EE5BFF4F20813181421779
:1004B000530741F00190F081E02DE80FF91F808192
:1004C00090E008958FEF9FEF0895FC018485958556
:1004D000FC01E05CFF4F40815181FC01EE5BFF4F6E
:1004E000208131814217530779F0A081B181A80F93
:1004F000B91F8C91208131812F5F3F4F2F7333279C
:100500003183208390E008958FEF9FEF0895FC01E1
:1005100081A1882329F0A489B5898C9186FFFBCF1E
:1005200011A20895CF93DF93FC0126853785D90169
:10053000A05CBF4F8D919C91119701968F73992765
:10054000E901CE5BDF4F4881598184179507D9F3C4
:100550000D90BC91A02DA20FB31F6C93A685B785FB
:10056000A05CBF4F11969C938E93A689B7892C915E
:1005700081E090E0078C02C0880F991F0A94E2F78F
:10058000282B2C9381E081A30488F589E02D8081BC
:100590008064808381E090E0DF91CF910895089599
:1005A0001F920F920FB60F9211242F933F934F93E8
:1005B0008F939F93EF93FF938091C00082FD1CC0A7
:1005C0004091C6008091CB019091CC0101968F7330
:1005D00099272091CD013091CE018217930771F0B8
:1005E000E091CB01F091CC01E557FE4F4083909311
:1005F000CC018093CB0102C08091C600FF91EF91A6
:100600009F918F914F913F912F910F900FBE0F901F
:100610001F90189585E291E00E943802892B11F015
:100620000C94CF0208951F920F920FB60F921124CF
:100630002F933F938F939F93EF93FF932091870185
:10064000309188018091890190918A01281739079A
:1006500031F48091C1008F7D8093C10014C0E0917E
:100660008901F0918A01E95BFE4F20818091890127
:1006700090918A0101968F73992790938A018093B4
:1006800089012093C600FF91EF919F918F913F9137
:100690002F910F900FBE0F901F901895CF92DF9261
:1006A000EF92FF92CF93DF93EC016A017B0141153A
:1006B00081EE580761057105F9F0EC89FD8981E04B
:1006C00090E008A002C0880F991F0A94E2F7808387
:1006D00060E079E08DE390E0A70196010E944D046F
:1006E000215031094109510956954795379527956C
:1006F000211580E1380798F0EC89FD89108260E8C7
:1007000074E88EE190E0A70196010E944D0421500B
:100710003109410951095695479537952795E8893B
:10072000F9893083EA89FB89208319A2EE89FF8940
:10073000408181E090E09C010C8C02C0220F331FAD
:100740000A94E2F7422B4083EE89FF8940819C01A5
:100750000D8C02C0220F331F0A94E2F7422B408314
:10076000EE89FF8940819C010E8C02C0220F331F4D
:100770000A94E2F7422B4083EE89FF8920810F8C97
:1007800002C0880F991F0A94E2F780958223808324
:10079000DF91CF91FF90EF90DF90CF90089510926E
:1007A00028011092270188EE93E0A0E0B0E080934A
:1007B000290190932A01A0932B01B0932C018AE088
:1007C00091E090932601809325018BE891E090932E
:1007D00032018093310187E491E09093340180935A
:1007E000330185EC90E0909336018093350184ECE1
:1007F00090E0909338018093370180EC90E09093E3
:100800003A018093390181EC90E090933C01809310
:100810003B0182EC90E090933E0180933D0186EC99
:1008200090E09093400180933F0184E080934101E8
:1008300083E08093420187E08093430185E08093C9
:10084000440181E0809345010895CF92DF92EF92B9
:10085000FF920F931F93CF93DF936C017A01EB010B
:10086000E60EF71E00E010E0CE15DF0561F069919D
:10087000D601ED91FC910190F081E02DC601099522
:10088000080F191FF1CFC801DF91CF911F910F9170
:10089000FF90EF90DF90CF900895A1E21A2EAA1B4F
:1008A000BB1BFD010DC0AA1FBB1FEE1FFF1FA21720
:1008B000B307E407F50720F0A21BB30BE40BF50B1D
:1008C000661F771F881F991F1A9469F760957095A6
:1008D000809590959B01AC01BD01CF010895EE0F6D
:0E08E000FF1F0590F491E02D0994F894FFCFCE
:1008EE000000CF0120000000000092022504380213
:0608FE0065024A028702B8
:00000001FF
