:100000000C9437010C9468010C9468010C946801FD
:100010000C9468010C9468010C9468010C946801BC
:100020000C9468010C9468010C9468010C946801AC
:100030000C9468010C9468010C9468010C9468019C
:100040000C9468010C9468010C9468010C9468018C
:100050000C9468010C9468010C9468010C94FE01E6
:100060000C9468010C941A040C940A050C94680111
:100070000C9468010C9468010C9468010C9468015C
:100080000C9468010C9468010C9468010C9468014C
:100090000C944E040C9449050C9468010C9468016E
:1000A0000C9468010C9468010C9468010C9468012C
:1000B0000C9468010C9468010C9468010C9468011C
:1000C0000C9468010C9468010C9468010C948204EF
:1000D0000C9488050C9468010C94B6040C94C70524
:1000E0000C946801BF02C202B502B902F902C6024D
:1000F000CA02D002D402D802DE02E202E602F9020B
:10010000EC02F002F4020000090A02080B0C0D07D1
:1001100006030401000000000000000000000000D1
:1001200000000000000000000000000000000000CF
:10013000000011100F00000000000000000000008F
:10014000000000000000000000000000010210207C
:1001500020080810204010204080020102010804FD
:100160000201010204081020408080402010080491
:1001700002018004020180402010080402010804EA
:10018000020101020408102040800102040810202E
:100190004080050505050705080808080202020257
:1001A0000A0A080804040404010101010101010113
:1001B0000303030303030303040707070C0C0C0CDE
:1001C0000C0C0C0C020202020606060606060606C7
:1001D0000B0B0B0B0B0B0B0B000022002500280058
:1001E0002B002E003100340002010000050108013F
:1001F0000B0100002100240027002A002D00300000
:10020000330001010000040107010A010C94EC0213
:100210000C94F0020C94B8030C94D4020C94960342
:100220000C94F9020C94C2020C94DE020C94E202CB
:100230000C94F4020C94C3030C9487060C94E90408
:100240000C94C6020C94D8020C94B9020C94B5021A
:100250000C94D0020C9469030C94E6020C947B037A
:100260000C94BF020C94BD070C94CA02870611249B
:100270001FBECFEFD1E2DEBFCDBF00E00CBF12E06A
:10028000A0E0B2E0E6E2F0E100E00BBF02C00790C0
:100290000D92A631B107D9F714E0A6E1B2E001C092
:1002A0001D92AD3CB107E1F712E0CEE6D2E000E0EE
:1002B00006C022970109FE010BBF0E940D08CC3633
:1002C000D10780E00807A9F70E9494010C94110857
:1002D0000C9400000E94DE0162E081E80C94AC0105
:1002E0008BE892E00E946903892BE9F08CE00E9480
:1002F000C001682F70E070931B0260931A028F7028
:10030000282F30E030931902209318026295617013
:1003100060931602109217022C50310922303105D9
:1003200010F40C94330308950E9448020E946A015D
:10033000C9EED4E00E9470012097E1F30E94E90425
:10034000F9CF8BE892E00E9496030895682F8BE81E
:1003500092E00E94C3030895CF93DF93D82FC62F56
:1003600040E052EC61E070E08BE892E00E9406060B
:100370008D2F0E94A6018C2FDF91CF910C94A601A6
:100380001F93CF93DF93D82F8BE892E00E946903ED
:100390000297D4F30E94A101182F0E94A101C82F37
:1003A0008D2F0E94A601812F0E94A6018C2F0E94F2
:1003B000A6018C2FDF91CF911F91089561E08DE010
:1003C0000E94FA0260E08DE00E94330361E08CE05D
:1003D0000E94FA0260E08CE00E94330360E082E059
:1003E0000E94FA0260E083E00E94FA0261E082E08B
:1003F0000E94330361E083E00C9433031F920F9259
:100400000FB60F9211242F933F938F939F93AF9327
:10041000BF9380911D0290911E02A0911F02B09186
:10042000200230911C0223E0230F2D3720F4019687
:10043000A11DB11D05C026E8230F0296A11DB11D07
:1004400020931C0280931D0290931E02A0931F0212
:10045000B09320028091210290912202A091230268
:10046000B09124020196A11DB11D809321029093A9
:100470002202A0932302B0932402BF91AF919F91D7
:100480008F913F912F910F900FBE0F901F90189555
:10049000789484B5826084BD84B5816084BD85B55F
:1004A000826085BD85B5816085BDEEE6F0E0808126
:1004B00081608083E1E8F0E0108280818260808347
:1004C000808181608083E0E8F0E0808181608083CA
:1004D000E1EBF0E0808184608083E0EBF0E08081FC
:1004E00081608083E1E9F0E08081826080838081A7
:1004F00081608083E0E9F0E0808181608083E1EACF
:10050000F0E0808182608083808181608083E0EA86
:10051000F0E0808181608083E1E2F1E080818260AF
:100520008083808181608083E0E2F1E0808181606E
:100530008083EAE7F0E0808184608083808182604C
:100540008083808181608083808180688083109235
:10055000C100089590E0FC013197E131F10508F008
:1005600048C0EE58FF4F0C940708809180008F77A9
:1005700003C0809180008F7D80938000089584B5B2
:100580008F7702C084B58F7D84BD08958091B000BF
:100590008F7703C08091B0008F7D8093B000089565
:1005A000809190008F7707C0809190008F7D03C06D
:1005B00080919000877F8093900008958091A000A3
:1005C0008F7707C08091A0008F7D03C08091A0002D
:1005D000877F8093A0000895809120018F7707C0C6
:1005E000809120018F7D03C080912001877F8093BF
:1005F00020010895CF93DF9390E0FC01E45BFE4F70
:100600002491FC01EE56FE4F8491882349F190E03D
:10061000880F991FFC01EE50FE4FA591B4918852AE
:100620009E4FFC01C591D4919FB7611108C0F89409
:100630008C91209582238C93888182230AC062301A
:1006400051F4F8948C91322F309583238C938881C8
:10065000822B888304C0F8948C91822B8C939FBF4B
:10066000DF91CF9108950F931F93CF93DF931F9244
:10067000CDB7DEB7282F30E0F901EA5FFE4F849155
:10068000F901E45BFE4F1491F901EE56FE4F04911F
:100690000023C9F0882321F069830E94AA0269819E
:1006A000E02FF0E0EE0FFF1FE852FE4FA591B4914E
:1006B0009FB7F8948C91611103C01095812301C0FC
:1006C000812B8C939FBF0F90DF91CF911F910F9142
:1006D0000895FC0124853585F901E05CFF4F808198
:1006E0009181F901EE5BFF4F20813181821B930BD9
:1006F0008F7399270895FC0184859585FC01E05C42
:10070000FF4F40815181FC01EE5BFF4F2081318121
:100710004217530741F00190F081E02DE80FF91FD7
:10072000808190E008958FEF9FEF0895FC0184850C
:100730009585FC01E05CFF4F40815181FC01EE5B3F
:10074000FF4F208131814217530779F0A081B18199
:10075000A80FB91F8C91208131812F5F3F4F2F73DC
:1007600033273183208390E008958FEF9FEF089522
:10077000FC0181A1882329F0A489B5898C9186FF89
:10078000FBCF11A20895CF93DF93FC012685378517
:10079000D901A05CBF4F8D919C91119701968F73E9
:1007A0009927E901CE5BDF4F48815981841795076E
:1007B000D9F30D90BC91A02DA20FB31F6C93A68509
:1007C000B785A05CBF4F11969C938E93A689B7897D
:1007D0002C9181E090E0078C02C0880F991F0A9449
:1007E000E2F7282B2C9381E081A30488F589E02D82
:1007F00080818064808381E090E0DF91CF910895D3
:10080000FB01E05CFF4F208131812F5F3F4F2F7351
:100810003327DB01AE5BBF4F4D915C912417350749
:1008200039F0A081B181A60FB71F8C93318320834B
:10083000089508951F920F920FB60F9211240BB6D0
:100840000F922F933F934F935F936F937F938F9369
:100850009F93AF93BF93EF93FF938091C00082FD6E
:1008600007C08091C60069E874E00E94000402C0DD
:100870008091C600FF91EF91BF91AF919F918F91B1
:100880007F916F915F914F913F912F910F900BBE90
:100890000F900FBE0F901F90189508951F920F9202
:1008A0000FB60F9211240BB60F922F933F934F93D5
:1008B0005F936F937F938F939F93AF93BF93EF93C8
:1008C000FF938091C80082FD07C08091CE0061E057
:1008D00074E00E94000402C08091CE00FF91EF916D
:1008E000BF91AF919F918F917F916F915F914F9148
:1008F0003F912F910F900BBE0F900FBE0F901F9046
:10090000189508951F920F920FB60F9211240BB6EF
:100910000F922F933F934F935F936F937F938F9398
:100920009F93AF93BF93EF93FF938091D00082FD8D
:1009300007C08091D60069E773E00E94000402C0FE
:100940008091D600FF91EF91BF91AF919F918F91D0
:100950007F916F915F914F913F912F910F900BBEBF
:100960000F900FBE0F901F90189508951F920F9231
:100970000FB60F9211240BB60F922F933F934F9304
:100980005F936F937F938F939F93AF93BF93EF93F7
:10099000FF938091300182FD07C08091360161EFA5
:1009A00072E00E94000402C080913601FF91EF9135
:1009B000BF91AF919F918F917F916F915F914F9177
:1009C0003F912F910F900BBE0F900FBE0F901F9075
:1009D00018958BE892E00E946903892B11F00E9420
:1009E000190489E692E00E946903892B11F00E94A4
:1009F0004D0487E492E00E946903892B11F00E9464
:100A0000810485E292E00E946903892B11F00C9425
:100A1000B50408951F920F920FB60F9211240BB6D2
:100A20000F922F933F938F939F93EF93FF93209178
:100A3000850430918604809187049091880428175A
:100A4000390731F48091C1008F7D8093C10014C0BB
:100A5000E0918704F0918804EB5BFB4F208180914B
:100A600087049091880401968F7399279093880446
:100A7000809387042093C600FF91EF919F918F91FF
:100A80003F912F910F900BBE0F900FBE0F901F90B4
:100A900018951F920F920FB60F9211240BB60F925A
:100AA0002F933F938F939F93EF93FF932091FD0399
:100AB0003091FE038091FF039091000428173907BD
:100AC00031F48091C9008F7D8093C90014C0E091FA
:100AD000FF03F0910004E354FC4F20818091FF0359
:100AE0009091000401968F7399279093000480934E
:100AF000FF032093CE00FF91EF919F918F913F9143
:100B00002F910F900BBE0F900FBE0F901F90189556
:100B10001F920F920FB60F9211240BB60F922F93C4
:100B20003F938F939F93EF93FF93209175033091A1
:100B3000760380917703909178032817390731F471
:100B40008091D1008F7D8093D10014C0E091770314
:100B5000F0917803EB5CFC4F2081809177039091BA
:100B6000780301968F739927909378038093770386
:100B70002093D600FF91EF919F918F913F912F91FC
:100B80000F900BBE0F900FBE0F901F9018951F92E5
:100B90000F920FB60F9211240BB60F922F933F9323
:100BA0008F939F93EF93FF932091ED023091EE028C
:100BB0008091EF029091F0022817390731F480916B
:100BC00031018F7D8093310114C0E091EF02F091EB
:100BD000F002E355FD4F20818091EF029091F002E9
:100BE00001968F7399279093F0028093EF022093E0
:100BF0003601FF91EF919F918F913F912F910F902F
:100C00000BBE0F900FBE0F901F901895CF92DF92E2
:100C1000EF92FF92CF93DF93EC016A017B014115C4
:100C200081EE580761057105F9F0EC89FD8981E0D5
:100C300090E008A002C0880F991F0A94E2F7808311
:100C400060E079E08DE390E0A70196010E94E5075E
:100C500021503109410951095695479537952795F6
:100C6000211580E1380798F0EC89FD89108260E851
:100C700074E88EE190E0A70196010E94E5072150FB
:100C80003109410951095695479537952795E889C6
:100C9000F9893083EA89FB89208319A2EE89FF89CB
:100CA000408181E090E09C010C8C02C0220F331F38
:100CB0000A94E2F7422B4083EE89FF8940819C0130
:100CC0000D8C02C0220F331F0A94E2F7422B40839F
:100CD000EE89FF8940819C010E8C02C0220F331FD8
:100CE0000A94E2F7422B4083EE89FF8920810F8C22
:100CF00002C0880F991F0A94E2F7809582238083AF
:100D0000DF91CF91FF90EF90DF90CF900895CF9338
:100D100010928E0210928D0288EE93E0A0E0B0E077
:100D200080938F0290939002A0939102B0939202CD
:100D30002AE032E030938C0220938B0249E854E0A1
:100D4000509398024093970245E454E050939A02DE
:100D50004093990245EC50E050939C0240939B02D3
:100D600044EC50E050939E0240939D0240EC50E0D2
:100D70005093A00240939F0241EC50E05093A20296
:100D80004093A10242EC50E05093A4024093A3028E
:100D900046EC50E05093A6024093A502C4E0C093F5
:100DA000A702F3E0F093A802E7E0E093A90275E060
:100DB0007093AA0261E06093AB0210926C021092F1
:100DC0006B0280936D0290936E02A0936F02B093BA
:100DD000700230936A022093690241E054E050931C
:100DE0007602409375024DEB53E0509378024093A6
:100DF00077024DEC50E050937A02409379024CEC2C
:100E000050E050937C0240937B0248EC50E05093BA
:100E10007E0240937D0249EC50E050938002409363
:100E20007F024AEC50E050938202409381024EECE4
:100E300050E05093840240938302C0938502F09364
:100E40008602E09387027093880260938902109271
:100E50004A021092490280934B0290934C02A09355
:100E60004D02B0934E02309348022093470249E767
:100E700053E0509354024093530245E353E05093A0
:100E800056024093550245ED50E05093580240936E
:100E9000570244ED50E050935A024093590240EDFE
:100EA00050E050935C0240935B0241ED50E0509360
:100EB0005E0240935D0242ED50E050936002409329
:100EC0005F0246ED50E05093620240936102C0938E
:100ED0006302F0936402E09365027093660260938C
:100EE00067021092280210922702809329029093A1
:100EF0002A02A0932B02B0932C0230932602209357
:100F0000250281EF92E090933202809331028DEAC4
:100F100092E0909334028093330285E391E09093C2
:100F200036028093350284E391E0909338028093F7
:100F3000370280E391E090933A028093390281E393
:100F400091E090933C0280933B0282E391E0909386
:100F50003E0280933D0286E391E0909340028093AD
:100F60003F02C0934102F0934202E0934302709328
:100F7000440260934502CF910895CF92DF92EF92A1
:100F8000FF920F931F93CF93DF936C017A01EB01D4
:100F9000E60EF71E00E010E0CE15DF0561F0699166
:100FA000D601ED91FC910190F081E02DC6011995DB
:100FB000080F191FF1CFC801DF91CF911F910F9139
:100FC000FF90EF90DF90CF900895A1E21A2EAA1B18
:100FD000BB1BFD010DC0AA1FBB1FEE1FFF1FA217E9
:100FE000B307E407F50720F0A21BB30BE40BF50BE6
:100FF000661F771F881F991F1A9469F7609570956F
:10100000809590959B01AC01BD01CF010895EE0F35
:10101000FF1F0590F491E02D19940790F691E02DB3
:061020001994F894FFCFC3
:101026000000CD04200000000000C303BD076903D3
:0610360096037B03B803E2
:00000001FF
